{
	"contracts/SupplyChain.sol": {
		"SupplyChainManager": {
			"abi": [
				{
					"inputs": [],
					"stateMutability": "nonpayable",
					"type": "constructor"
				},
				{
					"inputs": [
						{
							"internalType": "string",
							"name": "_description",
							"type": "string"
						},
						{
							"internalType": "address",
							"name": "_owner",
							"type": "address"
						}
					],
					"name": "createItem",
					"outputs": [],
					"stateMutability": "nonpayable",
					"type": "function"
				},
				{
					"inputs": [
						{
							"internalType": "uint256",
							"name": "_itemId",
							"type": "uint256"
						}
					],
					"name": "getItem",
					"outputs": [
						{
							"components": [
								{
									"internalType": "uint256",
									"name": "id",
									"type": "uint256"
								},
								{
									"internalType": "address",
									"name": "owner",
									"type": "address"
								},
								{
									"internalType": "string",
									"name": "description",
									"type": "string"
								},
								{
									"internalType": "string",
									"name": "location",
									"type": "string"
								},
								{
									"internalType": "enum SupplyChainManager.Status",
									"name": "status",
									"type": "uint8"
								}
							],
							"internalType": "struct SupplyChainManager.Item",
							"name": "",
							"type": "tuple"
						}
					],
					"stateMutability": "view",
					"type": "function"
				},
				{
					"inputs": [],
					"name": "getItemCount",
					"outputs": [
						{
							"internalType": "uint256",
							"name": "",
							"type": "uint256"
						}
					],
					"stateMutability": "view",
					"type": "function"
				},
				{
					"inputs": [
						{
							"internalType": "uint256",
							"name": "",
							"type": "uint256"
						}
					],
					"name": "items",
					"outputs": [
						{
							"internalType": "uint256",
							"name": "id",
							"type": "uint256"
						},
						{
							"internalType": "address",
							"name": "owner",
							"type": "address"
						},
						{
							"internalType": "string",
							"name": "description",
							"type": "string"
						},
						{
							"internalType": "string",
							"name": "location",
							"type": "string"
						},
						{
							"internalType": "enum SupplyChainManager.Status",
							"name": "status",
							"type": "uint8"
						}
					],
					"stateMutability": "view",
					"type": "function"
				},
				{
					"inputs": [],
					"name": "nextItemId",
					"outputs": [
						{
							"internalType": "uint256",
							"name": "",
							"type": "uint256"
						}
					],
					"stateMutability": "view",
					"type": "function"
				},
				{
					"inputs": [
						{
							"internalType": "uint256",
							"name": "_itemId",
							"type": "uint256"
						},
						{
							"internalType": "address",
							"name": "_newOwner",
							"type": "address"
						}
					],
					"name": "transferOwnership",
					"outputs": [],
					"stateMutability": "nonpayable",
					"type": "function"
				},
				{
					"inputs": [
						{
							"internalType": "uint256",
							"name": "_itemId",
							"type": "uint256"
						},
						{
							"internalType": "string",
							"name": "_newLocation",
							"type": "string"
						}
					],
					"name": "updateLocation",
					"outputs": [],
					"stateMutability": "nonpayable",
					"type": "function"
				},
				{
					"inputs": [
						{
							"internalType": "uint256",
							"name": "_itemId",
							"type": "uint256"
						},
						{
							"internalType": "enum SupplyChainManager.Status",
							"name": "_newStatus",
							"type": "uint8"
						}
					],
					"name": "updateStatus",
					"outputs": [],
					"stateMutability": "nonpayable",
					"type": "function"
				}
			],
			"devdoc": {
				"kind": "dev",
				"methods": {},
				"version": 1
			},
			"evm": {
				"assembly": "    /* \"contracts/SupplyChain.sol\":69:2343  contract SupplyChainManager {... */\n  mstore(0x40, 0x80)\n    /* \"contracts/SupplyChain.sol\":658:705  constructor() {... */\n  callvalue\n  dup1\n  iszero\n  tag_1\n  jumpi\n  0x00\n  dup1\n  revert\ntag_1:\n  pop\n    /* \"contracts/SupplyChain.sol\":696:697  1 */\n  0x01\n    /* \"contracts/SupplyChain.sol\":683:693  nextItemId */\n  dup1\n    /* \"contracts/SupplyChain.sol\":683:697  nextItemId = 1 */\n  dup2\n  swap1\n  sstore\n  pop\n    /* \"contracts/SupplyChain.sol\":69:2343  contract SupplyChainManager {... */\n  dataSize(sub_0)\n  dup1\n  dataOffset(sub_0)\n  0x00\n  codecopy\n  0x00\n  return\nstop\n\nsub_0: assembly {\n        /* \"contracts/SupplyChain.sol\":69:2343  contract SupplyChainManager {... */\n      mstore(0x40, 0x80)\n      callvalue\n      dup1\n      iszero\n      tag_1\n      jumpi\n      0x00\n      dup1\n      revert\n    tag_1:\n      pop\n      jumpi(tag_2, lt(calldatasize, 0x04))\n      shr(0xe0, calldataload(0x00))\n      dup1\n      0x6a868974\n      gt\n      tag_11\n      jumpi\n      dup1\n      0x6a868974\n      eq\n      tag_7\n      jumpi\n      dup1\n      0x7749cf23\n      eq\n      tag_8\n      jumpi\n      dup1\n      0xbfb231d2\n      eq\n      tag_9\n      jumpi\n      dup1\n      0xfb54453b\n      eq\n      tag_10\n      jumpi\n      jump(tag_2)\n    tag_11:\n      dup1\n      0x29507f73\n      eq\n      tag_3\n      jumpi\n      dup1\n      0x3129e773\n      eq\n      tag_4\n      jumpi\n      dup1\n      0x3a1b3d31\n      eq\n      tag_5\n      jumpi\n      dup1\n      0x4ec0c9e9\n      eq\n      tag_6\n      jumpi\n    tag_2:\n      0x00\n      dup1\n      revert\n        /* \"contracts/SupplyChain.sol\":1811:2027  function transferOwnership(uint256 _itemId, address _newOwner) public {... */\n    tag_3:\n      tag_12\n      0x04\n      dup1\n      calldatasize\n      sub\n      dup2\n      add\n      swap1\n      tag_13\n      swap2\n      swap1\n      tag_14\n      jump\t// in\n    tag_13:\n      tag_15\n      jump\t// in\n    tag_12:\n      stop\n        /* \"contracts/SupplyChain.sol\":2081:2189  function getItem(uint256 _itemId) public view returns (Item memory) {... */\n    tag_4:\n      tag_16\n      0x04\n      dup1\n      calldatasize\n      sub\n      dup2\n      add\n      swap1\n      tag_17\n      swap2\n      swap1\n      tag_18\n      jump\t// in\n    tag_17:\n      tag_19\n      jump\t// in\n    tag_16:\n      mload(0x40)\n      tag_20\n      swap2\n      swap1\n      tag_21\n      jump\t// in\n    tag_20:\n      mload(0x40)\n      dup1\n      swap2\n      sub\n      swap1\n      return\n        /* \"contracts/SupplyChain.sol\":1436:1747  function updateStatus(uint256 _itemId, SupplyChainManager.Status _newStatus) public {... */\n    tag_5:\n      tag_22\n      0x04\n      dup1\n      calldatasize\n      sub\n      dup2\n      add\n      swap1\n      tag_23\n      swap2\n      swap1\n      tag_24\n      jump\t// in\n    tag_23:\n      tag_25\n      jump\t// in\n    tag_22:\n      stop\n        /* \"contracts/SupplyChain.sol\":1165:1390  function updateLocation(uint256 _itemId, string memory _newLocation) public {... */\n    tag_6:\n      tag_26\n      0x04\n      dup1\n      calldatasize\n      sub\n      dup2\n      add\n      swap1\n      tag_27\n      swap2\n      swap1\n      tag_28\n      jump\t// in\n    tag_27:\n      tag_29\n      jump\t// in\n    tag_26:\n      stop\n        /* \"contracts/SupplyChain.sol\":207:232  uint256 public nextItemId */\n    tag_7:\n      tag_30\n      tag_31\n      jump\t// in\n    tag_30:\n      mload(0x40)\n      tag_32\n      swap2\n      swap1\n      tag_33\n      jump\t// in\n    tag_32:\n      mload(0x40)\n      dup1\n      swap2\n      sub\n      swap1\n      return\n        /* \"contracts/SupplyChain.sol\":2246:2340  function getItemCount() public view returns (uint256) {... */\n    tag_8:\n      tag_34\n      tag_35\n      jump\t// in\n    tag_34:\n      mload(0x40)\n      tag_36\n      swap2\n      swap1\n      tag_33\n      jump\t// in\n    tag_36:\n      mload(0x40)\n      dup1\n      swap2\n      sub\n      swap1\n      return\n        /* \"contracts/SupplyChain.sol\":130:167  mapping(uint256 => Item) public items */\n    tag_9:\n      tag_37\n      0x04\n      dup1\n      calldatasize\n      sub\n      dup2\n      add\n      swap1\n      tag_38\n      swap2\n      swap1\n      tag_18\n      jump\t// in\n    tag_38:\n      tag_39\n      jump\t// in\n    tag_37:\n      mload(0x40)\n      tag_40\n      swap6\n      swap5\n      swap4\n      swap3\n      swap2\n      swap1\n      tag_41\n      jump\t// in\n    tag_40:\n      mload(0x40)\n      dup1\n      swap2\n      sub\n      swap1\n      return\n        /* \"contracts/SupplyChain.sol\":781:1117  function createItem(string memory _description, address _owner) public {... */\n    tag_10:\n      tag_42\n      0x04\n      dup1\n      calldatasize\n      sub\n      dup2\n      add\n      swap1\n      tag_43\n      swap2\n      swap1\n      tag_44\n      jump\t// in\n    tag_43:\n      tag_45\n      jump\t// in\n    tag_42:\n      stop\n        /* \"contracts/SupplyChain.sol\":1811:2027  function transferOwnership(uint256 _itemId, address _newOwner) public {... */\n    tag_15:\n        /* \"contracts/SupplyChain.sol\":1924:1934  msg.sender */\n      caller\n        /* \"contracts/SupplyChain.sol\":1900:1934  items[_itemId].owner == msg.sender */\n      0xffffffffffffffffffffffffffffffffffffffff\n      and\n        /* \"contracts/SupplyChain.sol\":1900:1905  items */\n      0x00\n        /* \"contracts/SupplyChain.sol\":1900:1914  items[_itemId] */\n      dup1\n        /* \"contracts/SupplyChain.sol\":1906:1913  _itemId */\n      dup5\n        /* \"contracts/SupplyChain.sol\":1900:1914  items[_itemId] */\n      dup2\n      mstore\n      0x20\n      add\n      swap1\n      dup2\n      mstore\n      0x20\n      add\n      0x00\n      keccak256\n        /* \"contracts/SupplyChain.sol\":1900:1920  items[_itemId].owner */\n      0x01\n      add\n      0x00\n      swap1\n      sload\n      swap1\n      0x0100\n      exp\n      swap1\n      div\n      0xffffffffffffffffffffffffffffffffffffffff\n      and\n        /* \"contracts/SupplyChain.sol\":1900:1934  items[_itemId].owner == msg.sender */\n      0xffffffffffffffffffffffffffffffffffffffff\n      and\n      eq\n        /* \"contracts/SupplyChain.sol\":1892:1976  require(items[_itemId].owner == msg.sender, \"Only the owner can transfer ownership\") */\n      tag_47\n      jumpi\n      mload(0x40)\n      0x08c379a000000000000000000000000000000000000000000000000000000000\n      dup2\n      mstore\n      0x04\n      add\n      tag_48\n      swap1\n      tag_49\n      jump\t// in\n    tag_48:\n      mload(0x40)\n      dup1\n      swap2\n      sub\n      swap1\n      revert\n    tag_47:\n        /* \"contracts/SupplyChain.sol\":2010:2019  _newOwner */\n      dup1\n        /* \"contracts/SupplyChain.sol\":1987:1992  items */\n      0x00\n        /* \"contracts/SupplyChain.sol\":1987:2001  items[_itemId] */\n      dup1\n        /* \"contracts/SupplyChain.sol\":1993:2000  _itemId */\n      dup5\n        /* \"contracts/SupplyChain.sol\":1987:2001  items[_itemId] */\n      dup2\n      mstore\n      0x20\n      add\n      swap1\n      dup2\n      mstore\n      0x20\n      add\n      0x00\n      keccak256\n        /* \"contracts/SupplyChain.sol\":1987:2007  items[_itemId].owner */\n      0x01\n      add\n      0x00\n        /* \"contracts/SupplyChain.sol\":1987:2019  items[_itemId].owner = _newOwner */\n      0x0100\n      exp\n      dup2\n      sload\n      dup2\n      0xffffffffffffffffffffffffffffffffffffffff\n      mul\n      not\n      and\n      swap1\n      dup4\n      0xffffffffffffffffffffffffffffffffffffffff\n      and\n      mul\n      or\n      swap1\n      sstore\n      pop\n        /* \"contracts/SupplyChain.sol\":1811:2027  function transferOwnership(uint256 _itemId, address _newOwner) public {... */\n      pop\n      pop\n      jump\t// out\n        /* \"contracts/SupplyChain.sol\":2081:2189  function getItem(uint256 _itemId) public view returns (Item memory) {... */\n    tag_19:\n        /* \"contracts/SupplyChain.sol\":2136:2147  Item memory */\n      tag_50\n      tag_51\n      jump\t// in\n    tag_50:\n        /* \"contracts/SupplyChain.sol\":2167:2172  items */\n      0x00\n        /* \"contracts/SupplyChain.sol\":2167:2181  items[_itemId] */\n      dup1\n        /* \"contracts/SupplyChain.sol\":2173:2180  _itemId */\n      dup4\n        /* \"contracts/SupplyChain.sol\":2167:2181  items[_itemId] */\n      dup2\n      mstore\n      0x20\n      add\n      swap1\n      dup2\n      mstore\n      0x20\n      add\n      0x00\n      keccak256\n        /* \"contracts/SupplyChain.sol\":2160:2181  return items[_itemId] */\n      mload(0x40)\n      dup1\n      0xa0\n      add\n      0x40\n      mstore\n      swap1\n      dup2\n      0x00\n      dup3\n      add\n      sload\n      dup2\n      mstore\n      0x20\n      add\n      0x01\n      dup3\n      add\n      0x00\n      swap1\n      sload\n      swap1\n      0x0100\n      exp\n      swap1\n      div\n      0xffffffffffffffffffffffffffffffffffffffff\n      and\n      0xffffffffffffffffffffffffffffffffffffffff\n      and\n      0xffffffffffffffffffffffffffffffffffffffff\n      and\n      dup2\n      mstore\n      0x20\n      add\n      0x02\n      dup3\n      add\n      dup1\n      sload\n      tag_53\n      swap1\n      tag_54\n      jump\t// in\n    tag_53:\n      dup1\n      0x1f\n      add\n      0x20\n      dup1\n      swap2\n      div\n      mul\n      0x20\n      add\n      mload(0x40)\n      swap1\n      dup2\n      add\n      0x40\n      mstore\n      dup1\n      swap3\n      swap2\n      swap1\n      dup2\n      dup2\n      mstore\n      0x20\n      add\n      dup3\n      dup1\n      sload\n      tag_55\n      swap1\n      tag_54\n      jump\t// in\n    tag_55:\n      dup1\n      iszero\n      tag_56\n      jumpi\n      dup1\n      0x1f\n      lt\n      tag_57\n      jumpi\n      0x0100\n      dup1\n      dup4\n      sload\n      div\n      mul\n      dup4\n      mstore\n      swap2\n      0x20\n      add\n      swap2\n      jump(tag_56)\n    tag_57:\n      dup3\n      add\n      swap2\n      swap1\n      0x00\n      mstore\n      keccak256(0x00, 0x20)\n      swap1\n    tag_58:\n      dup2\n      sload\n      dup2\n      mstore\n      swap1\n      0x01\n      add\n      swap1\n      0x20\n      add\n      dup1\n      dup4\n      gt\n      tag_58\n      jumpi\n      dup3\n      swap1\n      sub\n      0x1f\n      and\n      dup3\n      add\n      swap2\n    tag_56:\n      pop\n      pop\n      pop\n      pop\n      pop\n      dup2\n      mstore\n      0x20\n      add\n      0x03\n      dup3\n      add\n      dup1\n      sload\n      tag_59\n      swap1\n      tag_54\n      jump\t// in\n    tag_59:\n      dup1\n      0x1f\n      add\n      0x20\n      dup1\n      swap2\n      div\n      mul\n      0x20\n      add\n      mload(0x40)\n      swap1\n      dup2\n      add\n      0x40\n      mstore\n      dup1\n      swap3\n      swap2\n      swap1\n      dup2\n      dup2\n      mstore\n      0x20\n      add\n      dup3\n      dup1\n      sload\n      tag_60\n      swap1\n      tag_54\n      jump\t// in\n    tag_60:\n      dup1\n      iszero\n      tag_61\n      jumpi\n      dup1\n      0x1f\n      lt\n      tag_62\n      jumpi\n      0x0100\n      dup1\n      dup4\n      sload\n      div\n      mul\n      dup4\n      mstore\n      swap2\n      0x20\n      add\n      swap2\n      jump(tag_61)\n    tag_62:\n      dup3\n      add\n      swap2\n      swap1\n      0x00\n      mstore\n      keccak256(0x00, 0x20)\n      swap1\n    tag_63:\n      dup2\n      sload\n      dup2\n      mstore\n      swap1\n      0x01\n      add\n      swap1\n      0x20\n      add\n      dup1\n      dup4\n      gt\n      tag_63\n      jumpi\n      dup3\n      swap1\n      sub\n      0x1f\n      and\n      dup3\n      add\n      swap2\n    tag_61:\n      pop\n      pop\n      pop\n      pop\n      pop\n      dup2\n      mstore\n      0x20\n      add\n      0x04\n      dup3\n      add\n      0x00\n      swap1\n      sload\n      swap1\n      0x0100\n      exp\n      swap1\n      div\n      0xff\n      and\n      0x02\n      dup2\n      gt\n      iszero\n      tag_64\n      jumpi\n      tag_65\n      tag_66\n      jump\t// in\n    tag_65:\n    tag_64:\n      0x02\n      dup2\n      gt\n      iszero\n      tag_67\n      jumpi\n      tag_68\n      tag_66\n      jump\t// in\n    tag_68:\n    tag_67:\n      dup2\n      mstore\n      pop\n      pop\n      swap1\n      pop\n        /* \"contracts/SupplyChain.sol\":2081:2189  function getItem(uint256 _itemId) public view returns (Item memory) {... */\n      swap2\n      swap1\n      pop\n      jump\t// out\n        /* \"contracts/SupplyChain.sol\":1436:1747  function updateStatus(uint256 _itemId, SupplyChainManager.Status _newStatus) public {... */\n    tag_25:\n        /* \"contracts/SupplyChain.sol\":1563:1573  msg.sender */\n      caller\n        /* \"contracts/SupplyChain.sol\":1539:1573  items[_itemId].owner == msg.sender */\n      0xffffffffffffffffffffffffffffffffffffffff\n      and\n        /* \"contracts/SupplyChain.sol\":1539:1544  items */\n      0x00\n        /* \"contracts/SupplyChain.sol\":1539:1553  items[_itemId] */\n      dup1\n        /* \"contracts/SupplyChain.sol\":1545:1552  _itemId */\n      dup5\n        /* \"contracts/SupplyChain.sol\":1539:1553  items[_itemId] */\n      dup2\n      mstore\n      0x20\n      add\n      swap1\n      dup2\n      mstore\n      0x20\n      add\n      0x00\n      keccak256\n        /* \"contracts/SupplyChain.sol\":1539:1559  items[_itemId].owner */\n      0x01\n      add\n      0x00\n      swap1\n      sload\n      swap1\n      0x0100\n      exp\n      swap1\n      div\n      0xffffffffffffffffffffffffffffffffffffffff\n      and\n        /* \"contracts/SupplyChain.sol\":1539:1573  items[_itemId].owner == msg.sender */\n      0xffffffffffffffffffffffffffffffffffffffff\n      and\n      eq\n        /* \"contracts/SupplyChain.sol\":1539:1626  items[_itemId].owner == msg.sender || _newStatus == SupplyChainManager.Status.DELIVERED */\n      dup1\n      tag_70\n      jumpi\n      pop\n        /* \"contracts/SupplyChain.sol\":1591:1626  SupplyChainManager.Status.DELIVERED */\n      0x02\n        /* \"contracts/SupplyChain.sol\":1577:1626  _newStatus == SupplyChainManager.Status.DELIVERED */\n      dup1\n      dup2\n      gt\n      iszero\n      tag_71\n      jumpi\n      tag_72\n      tag_66\n      jump\t// in\n    tag_72:\n    tag_71:\n        /* \"contracts/SupplyChain.sol\":1577:1587  _newStatus */\n      dup2\n        /* \"contracts/SupplyChain.sol\":1577:1626  _newStatus == SupplyChainManager.Status.DELIVERED */\n      0x02\n      dup2\n      gt\n      iszero\n      tag_73\n      jumpi\n      tag_74\n      tag_66\n      jump\t// in\n    tag_74:\n    tag_73:\n      eq\n        /* \"contracts/SupplyChain.sol\":1539:1626  items[_itemId].owner == msg.sender || _newStatus == SupplyChainManager.Status.DELIVERED */\n    tag_70:\n        /* \"contracts/SupplyChain.sol\":1531:1694  require(items[_itemId].owner == msg.sender || _newStatus == SupplyChainManager.Status.DELIVERED, \"Only the owner or delivery agent can change status to DELIVERED\") */\n      tag_75\n      jumpi\n      mload(0x40)\n      0x08c379a000000000000000000000000000000000000000000000000000000000\n      dup2\n      mstore\n      0x04\n      add\n      tag_76\n      swap1\n      tag_77\n      jump\t// in\n    tag_76:\n      mload(0x40)\n      dup1\n      swap2\n      sub\n      swap1\n      revert\n    tag_75:\n        /* \"contracts/SupplyChain.sol\":1729:1739  _newStatus */\n      dup1\n        /* \"contracts/SupplyChain.sol\":1705:1710  items */\n      0x00\n        /* \"contracts/SupplyChain.sol\":1705:1719  items[_itemId] */\n      dup1\n        /* \"contracts/SupplyChain.sol\":1711:1718  _itemId */\n      dup5\n        /* \"contracts/SupplyChain.sol\":1705:1719  items[_itemId] */\n      dup2\n      mstore\n      0x20\n      add\n      swap1\n      dup2\n      mstore\n      0x20\n      add\n      0x00\n      keccak256\n        /* \"contracts/SupplyChain.sol\":1705:1726  items[_itemId].status */\n      0x04\n      add\n      0x00\n        /* \"contracts/SupplyChain.sol\":1705:1739  items[_itemId].status = _newStatus */\n      0x0100\n      exp\n      dup2\n      sload\n      dup2\n      0xff\n      mul\n      not\n      and\n      swap1\n      dup4\n      0x02\n      dup2\n      gt\n      iszero\n      tag_78\n      jumpi\n      tag_79\n      tag_66\n      jump\t// in\n    tag_79:\n    tag_78:\n      mul\n      or\n      swap1\n      sstore\n      pop\n        /* \"contracts/SupplyChain.sol\":1436:1747  function updateStatus(uint256 _itemId, SupplyChainManager.Status _newStatus) public {... */\n      pop\n      pop\n      jump\t// out\n        /* \"contracts/SupplyChain.sol\":1165:1390  function updateLocation(uint256 _itemId, string memory _newLocation) public {... */\n    tag_29:\n        /* \"contracts/SupplyChain.sol\":1284:1294  msg.sender */\n      caller\n        /* \"contracts/SupplyChain.sol\":1260:1294  items[_itemId].owner == msg.sender */\n      0xffffffffffffffffffffffffffffffffffffffff\n      and\n        /* \"contracts/SupplyChain.sol\":1260:1265  items */\n      0x00\n        /* \"contracts/SupplyChain.sol\":1260:1274  items[_itemId] */\n      dup1\n        /* \"contracts/SupplyChain.sol\":1266:1273  _itemId */\n      dup5\n        /* \"contracts/SupplyChain.sol\":1260:1274  items[_itemId] */\n      dup2\n      mstore\n      0x20\n      add\n      swap1\n      dup2\n      mstore\n      0x20\n      add\n      0x00\n      keccak256\n        /* \"contracts/SupplyChain.sol\":1260:1280  items[_itemId].owner */\n      0x01\n      add\n      0x00\n      swap1\n      sload\n      swap1\n      0x0100\n      exp\n      swap1\n      div\n      0xffffffffffffffffffffffffffffffffffffffff\n      and\n        /* \"contracts/SupplyChain.sol\":1260:1294  items[_itemId].owner == msg.sender */\n      0xffffffffffffffffffffffffffffffffffffffff\n      and\n      eq\n        /* \"contracts/SupplyChain.sol\":1252:1333  require(items[_itemId].owner == msg.sender, \"Only the owner can update location\") */\n      tag_81\n      jumpi\n      mload(0x40)\n      0x08c379a000000000000000000000000000000000000000000000000000000000\n      dup2\n      mstore\n      0x04\n      add\n      tag_82\n      swap1\n      tag_83\n      jump\t// in\n    tag_82:\n      mload(0x40)\n      dup1\n      swap2\n      sub\n      swap1\n      revert\n    tag_81:\n        /* \"contracts/SupplyChain.sol\":1370:1382  _newLocation */\n      dup1\n        /* \"contracts/SupplyChain.sol\":1344:1349  items */\n      0x00\n        /* \"contracts/SupplyChain.sol\":1344:1358  items[_itemId] */\n      dup1\n        /* \"contracts/SupplyChain.sol\":1350:1357  _itemId */\n      dup5\n        /* \"contracts/SupplyChain.sol\":1344:1358  items[_itemId] */\n      dup2\n      mstore\n      0x20\n      add\n      swap1\n      dup2\n      mstore\n      0x20\n      add\n      0x00\n      keccak256\n        /* \"contracts/SupplyChain.sol\":1344:1367  items[_itemId].location */\n      0x03\n      add\n        /* \"contracts/SupplyChain.sol\":1344:1382  items[_itemId].location = _newLocation */\n      swap1\n      dup2\n      tag_84\n      swap2\n      swap1\n      tag_85\n      jump\t// in\n    tag_84:\n      pop\n        /* \"contracts/SupplyChain.sol\":1165:1390  function updateLocation(uint256 _itemId, string memory _newLocation) public {... */\n      pop\n      pop\n      jump\t// out\n        /* \"contracts/SupplyChain.sol\":207:232  uint256 public nextItemId */\n    tag_31:\n      sload(0x01)\n      dup2\n      jump\t// out\n        /* \"contracts/SupplyChain.sol\":2246:2340  function getItemCount() public view returns (uint256) {... */\n    tag_35:\n        /* \"contracts/SupplyChain.sol\":2291:2298  uint256 */\n      0x00\n        /* \"contracts/SupplyChain.sol\":2331:2332  1 */\n      0x01\n        /* \"contracts/SupplyChain.sol\":2318:2328  nextItemId */\n      dup1\n      sload\n        /* \"contracts/SupplyChain.sol\":2318:2332  nextItemId - 1 */\n      tag_87\n      swap2\n      swap1\n      tag_88\n      jump\t// in\n    tag_87:\n        /* \"contracts/SupplyChain.sol\":2311:2332  return nextItemId - 1 */\n      swap1\n      pop\n        /* \"contracts/SupplyChain.sol\":2246:2340  function getItemCount() public view returns (uint256) {... */\n      swap1\n      jump\t// out\n        /* \"contracts/SupplyChain.sol\":130:167  mapping(uint256 => Item) public items */\n    tag_39:\n      mstore(0x20, 0x00)\n      dup1\n      0x00\n      mstore\n      keccak256(0x00, 0x40)\n      0x00\n      swap2\n      pop\n      swap1\n      pop\n      dup1\n      0x00\n      add\n      sload\n      swap1\n      dup1\n      0x01\n      add\n      0x00\n      swap1\n      sload\n      swap1\n      0x0100\n      exp\n      swap1\n      div\n      0xffffffffffffffffffffffffffffffffffffffff\n      and\n      swap1\n      dup1\n      0x02\n      add\n      dup1\n      sload\n      tag_89\n      swap1\n      tag_54\n      jump\t// in\n    tag_89:\n      dup1\n      0x1f\n      add\n      0x20\n      dup1\n      swap2\n      div\n      mul\n      0x20\n      add\n      mload(0x40)\n      swap1\n      dup2\n      add\n      0x40\n      mstore\n      dup1\n      swap3\n      swap2\n      swap1\n      dup2\n      dup2\n      mstore\n      0x20\n      add\n      dup3\n      dup1\n      sload\n      tag_90\n      swap1\n      tag_54\n      jump\t// in\n    tag_90:\n      dup1\n      iszero\n      tag_91\n      jumpi\n      dup1\n      0x1f\n      lt\n      tag_92\n      jumpi\n      0x0100\n      dup1\n      dup4\n      sload\n      div\n      mul\n      dup4\n      mstore\n      swap2\n      0x20\n      add\n      swap2\n      jump(tag_91)\n    tag_92:\n      dup3\n      add\n      swap2\n      swap1\n      0x00\n      mstore\n      keccak256(0x00, 0x20)\n      swap1\n    tag_93:\n      dup2\n      sload\n      dup2\n      mstore\n      swap1\n      0x01\n      add\n      swap1\n      0x20\n      add\n      dup1\n      dup4\n      gt\n      tag_93\n      jumpi\n      dup3\n      swap1\n      sub\n      0x1f\n      and\n      dup3\n      add\n      swap2\n    tag_91:\n      pop\n      pop\n      pop\n      pop\n      pop\n      swap1\n      dup1\n      0x03\n      add\n      dup1\n      sload\n      tag_94\n      swap1\n      tag_54\n      jump\t// in\n    tag_94:\n      dup1\n      0x1f\n      add\n      0x20\n      dup1\n      swap2\n      div\n      mul\n      0x20\n      add\n      mload(0x40)\n      swap1\n      dup2\n      add\n      0x40\n      mstore\n      dup1\n      swap3\n      swap2\n      swap1\n      dup2\n      dup2\n      mstore\n      0x20\n      add\n      dup3\n      dup1\n      sload\n      tag_95\n      swap1\n      tag_54\n      jump\t// in\n    tag_95:\n      dup1\n      iszero\n      tag_96\n      jumpi\n      dup1\n      0x1f\n      lt\n      tag_97\n      jumpi\n      0x0100\n      dup1\n      dup4\n      sload\n      div\n      mul\n      dup4\n      mstore\n      swap2\n      0x20\n      add\n      swap2\n      jump(tag_96)\n    tag_97:\n      dup3\n      add\n      swap2\n      swap1\n      0x00\n      mstore\n      keccak256(0x00, 0x20)\n      swap1\n    tag_98:\n      dup2\n      sload\n      dup2\n      mstore\n      swap1\n      0x01\n      add\n      swap1\n      0x20\n      add\n      dup1\n      dup4\n      gt\n      tag_98\n      jumpi\n      dup3\n      swap1\n      sub\n      0x1f\n      and\n      dup3\n      add\n      swap2\n    tag_96:\n      pop\n      pop\n      pop\n      pop\n      pop\n      swap1\n      dup1\n      0x04\n      add\n      0x00\n      swap1\n      sload\n      swap1\n      0x0100\n      exp\n      swap1\n      div\n      0xff\n      and\n      swap1\n      pop\n      dup6\n      jump\t// out\n        /* \"contracts/SupplyChain.sol\":781:1117  function createItem(string memory _description, address _owner) public {... */\n    tag_45:\n        /* \"contracts/SupplyChain.sol\":883:1086  Item({... */\n      mload(0x40)\n      dup1\n      0xa0\n      add\n      0x40\n      mstore\n      dup1\n        /* \"contracts/SupplyChain.sol\":907:917  nextItemId */\n      sload(0x01)\n        /* \"contracts/SupplyChain.sol\":883:1086  Item({... */\n      dup2\n      mstore\n      0x20\n      add\n        /* \"contracts/SupplyChain.sol\":939:945  _owner */\n      dup3\n        /* \"contracts/SupplyChain.sol\":883:1086  Item({... */\n      0xffffffffffffffffffffffffffffffffffffffff\n      and\n      dup2\n      mstore\n      0x20\n      add\n        /* \"contracts/SupplyChain.sol\":973:985  _description */\n      dup4\n        /* \"contracts/SupplyChain.sol\":883:1086  Item({... */\n      dup2\n      mstore\n      0x20\n      add\n      mload(0x40)\n      dup1\n      0x40\n      add\n      0x40\n      mstore\n      dup1\n      0x06\n      dup2\n      mstore\n      0x20\n      add\n      0x536f757263650000000000000000000000000000000000000000000000000000\n      dup2\n      mstore\n      pop\n      dup2\n      mstore\n      0x20\n      add\n        /* \"contracts/SupplyChain.sol\":1041:1074  SupplyChainManager.Status.CREATED */\n      0x00\n        /* \"contracts/SupplyChain.sol\":883:1086  Item({... */\n      0x02\n      dup2\n      gt\n      iszero\n      tag_100\n      jumpi\n      tag_101\n      tag_66\n      jump\t// in\n    tag_101:\n    tag_100:\n      dup2\n      mstore\n      pop\n        /* \"contracts/SupplyChain.sol\":863:868  items */\n      0x00\n        /* \"contracts/SupplyChain.sol\":863:880  items[nextItemId] */\n      dup1\n        /* \"contracts/SupplyChain.sol\":869:879  nextItemId */\n      sload(0x01)\n        /* \"contracts/SupplyChain.sol\":863:880  items[nextItemId] */\n      dup2\n      mstore\n      0x20\n      add\n      swap1\n      dup2\n      mstore\n      0x20\n      add\n      0x00\n      keccak256\n        /* \"contracts/SupplyChain.sol\":863:1086  items[nextItemId] = Item({... */\n      0x00\n      dup3\n      add\n      mload\n      dup2\n      0x00\n      add\n      sstore\n      0x20\n      dup3\n      add\n      mload\n      dup2\n      0x01\n      add\n      exp(0x0100, 0x00)\n      dup2\n      sload\n      dup2\n      0xffffffffffffffffffffffffffffffffffffffff\n      mul\n      not\n      and\n      swap1\n      dup4\n      0xffffffffffffffffffffffffffffffffffffffff\n      and\n      mul\n      or\n      swap1\n      sstore\n      pop\n      0x40\n      dup3\n      add\n      mload\n      dup2\n      0x02\n      add\n      swap1\n      dup2\n      tag_102\n      swap2\n      swap1\n      tag_85\n      jump\t// in\n    tag_102:\n      pop\n      0x60\n      dup3\n      add\n      mload\n      dup2\n      0x03\n      add\n      swap1\n      dup2\n      tag_103\n      swap2\n      swap1\n      tag_85\n      jump\t// in\n    tag_103:\n      pop\n      0x80\n      dup3\n      add\n      mload\n      dup2\n      0x04\n      add\n      exp(0x0100, 0x00)\n      dup2\n      sload\n      dup2\n      0xff\n      mul\n      not\n      and\n      swap1\n      dup4\n      0x02\n      dup2\n      gt\n      iszero\n      tag_104\n      jumpi\n      tag_105\n      tag_66\n      jump\t// in\n    tag_105:\n    tag_104:\n      mul\n      or\n      swap1\n      sstore\n      pop\n      swap1\n      pop\n      pop\n        /* \"contracts/SupplyChain.sol\":1097:1107  nextItemId */\n      0x01\n      0x00\n        /* \"contracts/SupplyChain.sol\":1097:1109  nextItemId++ */\n      dup2\n      sload\n      dup1\n      swap3\n      swap2\n      swap1\n      tag_106\n      swap1\n      tag_107\n      jump\t// in\n    tag_106:\n      swap2\n      swap1\n      pop\n      sstore\n      pop\n        /* \"contracts/SupplyChain.sol\":781:1117  function createItem(string memory _description, address _owner) public {... */\n      pop\n      pop\n      jump\t// out\n    tag_51:\n      mload(0x40)\n      dup1\n      0xa0\n      add\n      0x40\n      mstore\n      dup1\n      0x00\n      dup2\n      mstore\n      0x20\n      add\n      and(0xffffffffffffffffffffffffffffffffffffffff, 0x00)\n      dup2\n      mstore\n      0x20\n      add\n      0x60\n      dup2\n      mstore\n      0x20\n      add\n      0x60\n      dup2\n      mstore\n      0x20\n      add\n      0x00\n      0x02\n      dup2\n      gt\n      iszero\n      tag_108\n      jumpi\n      tag_109\n      tag_66\n      jump\t// in\n    tag_109:\n    tag_108:\n      dup2\n      mstore\n      pop\n      swap1\n      jump\t// out\n        /* \"#utility.yul\":7:82   */\n    tag_110:\n        /* \"#utility.yul\":40:46   */\n      0x00\n        /* \"#utility.yul\":73:75   */\n      0x40\n        /* \"#utility.yul\":67:76   */\n      mload\n        /* \"#utility.yul\":57:76   */\n      swap1\n      pop\n        /* \"#utility.yul\":7:82   */\n      swap1\n      jump\t// out\n        /* \"#utility.yul\":88:205   */\n    tag_111:\n        /* \"#utility.yul\":197:198   */\n      0x00\n        /* \"#utility.yul\":194:195   */\n      dup1\n        /* \"#utility.yul\":187:199   */\n      revert\n        /* \"#utility.yul\":211:328   */\n    tag_112:\n        /* \"#utility.yul\":320:321   */\n      0x00\n        /* \"#utility.yul\":317:318   */\n      dup1\n        /* \"#utility.yul\":310:322   */\n      revert\n        /* \"#utility.yul\":334:411   */\n    tag_113:\n        /* \"#utility.yul\":371:378   */\n      0x00\n        /* \"#utility.yul\":400:405   */\n      dup2\n        /* \"#utility.yul\":389:405   */\n      swap1\n      pop\n        /* \"#utility.yul\":334:411   */\n      swap2\n      swap1\n      pop\n      jump\t// out\n        /* \"#utility.yul\":417:539   */\n    tag_114:\n        /* \"#utility.yul\":490:514   */\n      tag_177\n        /* \"#utility.yul\":508:513   */\n      dup2\n        /* \"#utility.yul\":490:514   */\n      tag_113\n      jump\t// in\n    tag_177:\n        /* \"#utility.yul\":483:488   */\n      dup2\n        /* \"#utility.yul\":480:515   */\n      eq\n        /* \"#utility.yul\":470:533   */\n      tag_178\n      jumpi\n        /* \"#utility.yul\":529:530   */\n      0x00\n        /* \"#utility.yul\":526:527   */\n      dup1\n        /* \"#utility.yul\":519:531   */\n      revert\n        /* \"#utility.yul\":470:533   */\n    tag_178:\n        /* \"#utility.yul\":417:539   */\n      pop\n      jump\t// out\n        /* \"#utility.yul\":545:684   */\n    tag_115:\n        /* \"#utility.yul\":591:596   */\n      0x00\n        /* \"#utility.yul\":629:635   */\n      dup2\n        /* \"#utility.yul\":616:636   */\n      calldataload\n        /* \"#utility.yul\":607:636   */\n      swap1\n      pop\n        /* \"#utility.yul\":645:678   */\n      tag_180\n        /* \"#utility.yul\":672:677   */\n      dup2\n        /* \"#utility.yul\":645:678   */\n      tag_114\n      jump\t// in\n    tag_180:\n        /* \"#utility.yul\":545:684   */\n      swap3\n      swap2\n      pop\n      pop\n      jump\t// out\n        /* \"#utility.yul\":690:816   */\n    tag_116:\n        /* \"#utility.yul\":727:734   */\n      0x00\n        /* \"#utility.yul\":767:809   */\n      0xffffffffffffffffffffffffffffffffffffffff\n        /* \"#utility.yul\":760:765   */\n      dup3\n        /* \"#utility.yul\":756:810   */\n      and\n        /* \"#utility.yul\":745:810   */\n      swap1\n      pop\n        /* \"#utility.yul\":690:816   */\n      swap2\n      swap1\n      pop\n      jump\t// out\n        /* \"#utility.yul\":822:918   */\n    tag_117:\n        /* \"#utility.yul\":859:866   */\n      0x00\n        /* \"#utility.yul\":888:912   */\n      tag_183\n        /* \"#utility.yul\":906:911   */\n      dup3\n        /* \"#utility.yul\":888:912   */\n      tag_116\n      jump\t// in\n    tag_183:\n        /* \"#utility.yul\":877:912   */\n      swap1\n      pop\n        /* \"#utility.yul\":822:918   */\n      swap2\n      swap1\n      pop\n      jump\t// out\n        /* \"#utility.yul\":924:1046   */\n    tag_118:\n        /* \"#utility.yul\":997:1021   */\n      tag_185\n        /* \"#utility.yul\":1015:1020   */\n      dup2\n        /* \"#utility.yul\":997:1021   */\n      tag_117\n      jump\t// in\n    tag_185:\n        /* \"#utility.yul\":990:995   */\n      dup2\n        /* \"#utility.yul\":987:1022   */\n      eq\n        /* \"#utility.yul\":977:1040   */\n      tag_186\n      jumpi\n        /* \"#utility.yul\":1036:1037   */\n      0x00\n        /* \"#utility.yul\":1033:1034   */\n      dup1\n        /* \"#utility.yul\":1026:1038   */\n      revert\n        /* \"#utility.yul\":977:1040   */\n    tag_186:\n        /* \"#utility.yul\":924:1046   */\n      pop\n      jump\t// out\n        /* \"#utility.yul\":1052:1191   */\n    tag_119:\n        /* \"#utility.yul\":1098:1103   */\n      0x00\n        /* \"#utility.yul\":1136:1142   */\n      dup2\n        /* \"#utility.yul\":1123:1143   */\n      calldataload\n        /* \"#utility.yul\":1114:1143   */\n      swap1\n      pop\n        /* \"#utility.yul\":1152:1185   */\n      tag_188\n        /* \"#utility.yul\":1179:1184   */\n      dup2\n        /* \"#utility.yul\":1152:1185   */\n      tag_118\n      jump\t// in\n    tag_188:\n        /* \"#utility.yul\":1052:1191   */\n      swap3\n      swap2\n      pop\n      pop\n      jump\t// out\n        /* \"#utility.yul\":1197:1671   */\n    tag_14:\n        /* \"#utility.yul\":1265:1271   */\n      0x00\n        /* \"#utility.yul\":1273:1279   */\n      dup1\n        /* \"#utility.yul\":1322:1324   */\n      0x40\n        /* \"#utility.yul\":1310:1319   */\n      dup4\n        /* \"#utility.yul\":1301:1308   */\n      dup6\n        /* \"#utility.yul\":1297:1320   */\n      sub\n        /* \"#utility.yul\":1293:1325   */\n      slt\n        /* \"#utility.yul\":1290:1409   */\n      iszero\n      tag_190\n      jumpi\n        /* \"#utility.yul\":1328:1407   */\n      tag_191\n      tag_111\n      jump\t// in\n    tag_191:\n        /* \"#utility.yul\":1290:1409   */\n    tag_190:\n        /* \"#utility.yul\":1448:1449   */\n      0x00\n        /* \"#utility.yul\":1473:1526   */\n      tag_192\n        /* \"#utility.yul\":1518:1525   */\n      dup6\n        /* \"#utility.yul\":1509:1515   */\n      dup3\n        /* \"#utility.yul\":1498:1507   */\n      dup7\n        /* \"#utility.yul\":1494:1516   */\n      add\n        /* \"#utility.yul\":1473:1526   */\n      tag_115\n      jump\t// in\n    tag_192:\n        /* \"#utility.yul\":1463:1526   */\n      swap3\n      pop\n        /* \"#utility.yul\":1419:1536   */\n      pop\n        /* \"#utility.yul\":1575:1577   */\n      0x20\n        /* \"#utility.yul\":1601:1654   */\n      tag_193\n        /* \"#utility.yul\":1646:1653   */\n      dup6\n        /* \"#utility.yul\":1637:1643   */\n      dup3\n        /* \"#utility.yul\":1626:1635   */\n      dup7\n        /* \"#utility.yul\":1622:1644   */\n      add\n        /* \"#utility.yul\":1601:1654   */\n      tag_119\n      jump\t// in\n    tag_193:\n        /* \"#utility.yul\":1591:1654   */\n      swap2\n      pop\n        /* \"#utility.yul\":1546:1664   */\n      pop\n        /* \"#utility.yul\":1197:1671   */\n      swap3\n      pop\n      swap3\n      swap1\n      pop\n      jump\t// out\n        /* \"#utility.yul\":1677:2006   */\n    tag_18:\n        /* \"#utility.yul\":1736:1742   */\n      0x00\n        /* \"#utility.yul\":1785:1787   */\n      0x20\n        /* \"#utility.yul\":1773:1782   */\n      dup3\n        /* \"#utility.yul\":1764:1771   */\n      dup5\n        /* \"#utility.yul\":1760:1783   */\n      sub\n        /* \"#utility.yul\":1756:1788   */\n      slt\n        /* \"#utility.yul\":1753:1872   */\n      iszero\n      tag_195\n      jumpi\n        /* \"#utility.yul\":1791:1870   */\n      tag_196\n      tag_111\n      jump\t// in\n    tag_196:\n        /* \"#utility.yul\":1753:1872   */\n    tag_195:\n        /* \"#utility.yul\":1911:1912   */\n      0x00\n        /* \"#utility.yul\":1936:1989   */\n      tag_197\n        /* \"#utility.yul\":1981:1988   */\n      dup5\n        /* \"#utility.yul\":1972:1978   */\n      dup3\n        /* \"#utility.yul\":1961:1970   */\n      dup6\n        /* \"#utility.yul\":1957:1979   */\n      add\n        /* \"#utility.yul\":1936:1989   */\n      tag_115\n      jump\t// in\n    tag_197:\n        /* \"#utility.yul\":1926:1989   */\n      swap2\n      pop\n        /* \"#utility.yul\":1882:1999   */\n      pop\n        /* \"#utility.yul\":1677:2006   */\n      swap3\n      swap2\n      pop\n      pop\n      jump\t// out\n        /* \"#utility.yul\":2012:2120   */\n    tag_120:\n        /* \"#utility.yul\":2089:2113   */\n      tag_199\n        /* \"#utility.yul\":2107:2112   */\n      dup2\n        /* \"#utility.yul\":2089:2113   */\n      tag_113\n      jump\t// in\n    tag_199:\n        /* \"#utility.yul\":2084:2087   */\n      dup3\n        /* \"#utility.yul\":2077:2114   */\n      mstore\n        /* \"#utility.yul\":2012:2120   */\n      pop\n      pop\n      jump\t// out\n        /* \"#utility.yul\":2126:2234   */\n    tag_121:\n        /* \"#utility.yul\":2203:2227   */\n      tag_201\n        /* \"#utility.yul\":2221:2226   */\n      dup2\n        /* \"#utility.yul\":2203:2227   */\n      tag_117\n      jump\t// in\n    tag_201:\n        /* \"#utility.yul\":2198:2201   */\n      dup3\n        /* \"#utility.yul\":2191:2228   */\n      mstore\n        /* \"#utility.yul\":2126:2234   */\n      pop\n      pop\n      jump\t// out\n        /* \"#utility.yul\":2240:2339   */\n    tag_122:\n        /* \"#utility.yul\":2292:2298   */\n      0x00\n        /* \"#utility.yul\":2326:2331   */\n      dup2\n        /* \"#utility.yul\":2320:2332   */\n      mload\n        /* \"#utility.yul\":2310:2332   */\n      swap1\n      pop\n        /* \"#utility.yul\":2240:2339   */\n      swap2\n      swap1\n      pop\n      jump\t// out\n        /* \"#utility.yul\":2345:2504   */\n    tag_123:\n        /* \"#utility.yul\":2419:2430   */\n      0x00\n        /* \"#utility.yul\":2453:2459   */\n      dup3\n        /* \"#utility.yul\":2448:2451   */\n      dup3\n        /* \"#utility.yul\":2441:2460   */\n      mstore\n        /* \"#utility.yul\":2493:2497   */\n      0x20\n        /* \"#utility.yul\":2488:2491   */\n      dup3\n        /* \"#utility.yul\":2484:2498   */\n      add\n        /* \"#utility.yul\":2469:2498   */\n      swap1\n      pop\n        /* \"#utility.yul\":2345:2504   */\n      swap3\n      swap2\n      pop\n      pop\n      jump\t// out\n        /* \"#utility.yul\":2510:2756   */\n    tag_124:\n        /* \"#utility.yul\":2591:2592   */\n      0x00\n        /* \"#utility.yul\":2601:2714   */\n    tag_205:\n        /* \"#utility.yul\":2615:2621   */\n      dup4\n        /* \"#utility.yul\":2612:2613   */\n      dup2\n        /* \"#utility.yul\":2609:2622   */\n      lt\n        /* \"#utility.yul\":2601:2714   */\n      iszero\n      tag_207\n      jumpi\n        /* \"#utility.yul\":2700:2701   */\n      dup1\n        /* \"#utility.yul\":2695:2698   */\n      dup3\n        /* \"#utility.yul\":2691:2702   */\n      add\n        /* \"#utility.yul\":2685:2703   */\n      mload\n        /* \"#utility.yul\":2681:2682   */\n      dup2\n        /* \"#utility.yul\":2676:2679   */\n      dup5\n        /* \"#utility.yul\":2672:2683   */\n      add\n        /* \"#utility.yul\":2665:2704   */\n      mstore\n        /* \"#utility.yul\":2637:2639   */\n      0x20\n        /* \"#utility.yul\":2634:2635   */\n      dup2\n        /* \"#utility.yul\":2630:2640   */\n      add\n        /* \"#utility.yul\":2625:2640   */\n      swap1\n      pop\n        /* \"#utility.yul\":2601:2714   */\n      jump(tag_205)\n    tag_207:\n        /* \"#utility.yul\":2748:2749   */\n      0x00\n        /* \"#utility.yul\":2739:2745   */\n      dup5\n        /* \"#utility.yul\":2734:2737   */\n      dup5\n        /* \"#utility.yul\":2730:2746   */\n      add\n        /* \"#utility.yul\":2723:2750   */\n      mstore\n        /* \"#utility.yul\":2572:2756   */\n      pop\n        /* \"#utility.yul\":2510:2756   */\n      pop\n      pop\n      pop\n      jump\t// out\n        /* \"#utility.yul\":2762:2864   */\n    tag_125:\n        /* \"#utility.yul\":2803:2809   */\n      0x00\n        /* \"#utility.yul\":2854:2856   */\n      0x1f\n        /* \"#utility.yul\":2850:2857   */\n      not\n        /* \"#utility.yul\":2845:2847   */\n      0x1f\n        /* \"#utility.yul\":2838:2843   */\n      dup4\n        /* \"#utility.yul\":2834:2848   */\n      add\n        /* \"#utility.yul\":2830:2858   */\n      and\n        /* \"#utility.yul\":2820:2858   */\n      swap1\n      pop\n        /* \"#utility.yul\":2762:2864   */\n      swap2\n      swap1\n      pop\n      jump\t// out\n        /* \"#utility.yul\":2870:3227   */\n    tag_126:\n        /* \"#utility.yul\":2948:2951   */\n      0x00\n        /* \"#utility.yul\":2976:3015   */\n      tag_210\n        /* \"#utility.yul\":3009:3014   */\n      dup3\n        /* \"#utility.yul\":2976:3015   */\n      tag_122\n      jump\t// in\n    tag_210:\n        /* \"#utility.yul\":3031:3092   */\n      tag_211\n        /* \"#utility.yul\":3085:3091   */\n      dup2\n        /* \"#utility.yul\":3080:3083   */\n      dup6\n        /* \"#utility.yul\":3031:3092   */\n      tag_123\n      jump\t// in\n    tag_211:\n        /* \"#utility.yul\":3024:3092   */\n      swap4\n      pop\n        /* \"#utility.yul\":3101:3166   */\n      tag_212\n        /* \"#utility.yul\":3159:3165   */\n      dup2\n        /* \"#utility.yul\":3154:3157   */\n      dup6\n        /* \"#utility.yul\":3147:3151   */\n      0x20\n        /* \"#utility.yul\":3140:3145   */\n      dup7\n        /* \"#utility.yul\":3136:3152   */\n      add\n        /* \"#utility.yul\":3101:3166   */\n      tag_124\n      jump\t// in\n    tag_212:\n        /* \"#utility.yul\":3191:3220   */\n      tag_213\n        /* \"#utility.yul\":3213:3219   */\n      dup2\n        /* \"#utility.yul\":3191:3220   */\n      tag_125\n      jump\t// in\n    tag_213:\n        /* \"#utility.yul\":3186:3189   */\n      dup5\n        /* \"#utility.yul\":3182:3221   */\n      add\n        /* \"#utility.yul\":3175:3221   */\n      swap2\n      pop\n        /* \"#utility.yul\":2952:3227   */\n      pop\n        /* \"#utility.yul\":2870:3227   */\n      swap3\n      swap2\n      pop\n      pop\n      jump\t// out\n        /* \"#utility.yul\":3233:3413   */\n    tag_66:\n        /* \"#utility.yul\":3281:3358   */\n      0x4e487b7100000000000000000000000000000000000000000000000000000000\n        /* \"#utility.yul\":3278:3279   */\n      0x00\n        /* \"#utility.yul\":3271:3359   */\n      mstore\n        /* \"#utility.yul\":3378:3382   */\n      0x21\n        /* \"#utility.yul\":3375:3376   */\n      0x04\n        /* \"#utility.yul\":3368:3383   */\n      mstore\n        /* \"#utility.yul\":3402:3406   */\n      0x24\n        /* \"#utility.yul\":3399:3400   */\n      0x00\n        /* \"#utility.yul\":3392:3407   */\n      revert\n        /* \"#utility.yul\":3419:3533   */\n    tag_127:\n        /* \"#utility.yul\":3501:3502   */\n      0x03\n        /* \"#utility.yul\":3494:3499   */\n      dup2\n        /* \"#utility.yul\":3491:3503   */\n      lt\n        /* \"#utility.yul\":3481:3527   */\n      tag_216\n      jumpi\n        /* \"#utility.yul\":3507:3525   */\n      tag_217\n      tag_66\n      jump\t// in\n    tag_217:\n        /* \"#utility.yul\":3481:3527   */\n    tag_216:\n        /* \"#utility.yul\":3419:3533   */\n      pop\n      jump\t// out\n        /* \"#utility.yul\":3539:3668   */\n    tag_128:\n        /* \"#utility.yul\":3585:3592   */\n      0x00\n        /* \"#utility.yul\":3614:3619   */\n      dup2\n        /* \"#utility.yul\":3603:3619   */\n      swap1\n      pop\n        /* \"#utility.yul\":3620:3662   */\n      tag_219\n        /* \"#utility.yul\":3656:3661   */\n      dup3\n        /* \"#utility.yul\":3620:3662   */\n      tag_127\n      jump\t// in\n    tag_219:\n        /* \"#utility.yul\":3539:3668   */\n      swap2\n      swap1\n      pop\n      jump\t// out\n        /* \"#utility.yul\":3674:3803   */\n    tag_129:\n        /* \"#utility.yul\":3731:3740   */\n      0x00\n        /* \"#utility.yul\":3764:3797   */\n      tag_221\n        /* \"#utility.yul\":3791:3796   */\n      dup3\n        /* \"#utility.yul\":3764:3797   */\n      tag_128\n      jump\t// in\n    tag_221:\n        /* \"#utility.yul\":3751:3797   */\n      swap1\n      pop\n        /* \"#utility.yul\":3674:3803   */\n      swap2\n      swap1\n      pop\n      jump\t// out\n        /* \"#utility.yul\":3809:3944   */\n    tag_130:\n        /* \"#utility.yul\":3893:3937   */\n      tag_223\n        /* \"#utility.yul\":3931:3936   */\n      dup2\n        /* \"#utility.yul\":3893:3937   */\n      tag_129\n      jump\t// in\n    tag_223:\n        /* \"#utility.yul\":3888:3891   */\n      dup3\n        /* \"#utility.yul\":3881:3938   */\n      mstore\n        /* \"#utility.yul\":3809:3944   */\n      pop\n      pop\n      jump\t// out\n        /* \"#utility.yul\":4022:5230   */\n    tag_131:\n        /* \"#utility.yul\":4131:4134   */\n      0x00\n        /* \"#utility.yul\":4167:4171   */\n      0xa0\n        /* \"#utility.yul\":4162:4165   */\n      dup4\n        /* \"#utility.yul\":4158:4172   */\n      add\n        /* \"#utility.yul\":4252:4256   */\n      0x00\n        /* \"#utility.yul\":4245:4250   */\n      dup4\n        /* \"#utility.yul\":4241:4257   */\n      add\n        /* \"#utility.yul\":4235:4258   */\n      mload\n        /* \"#utility.yul\":4271:4334   */\n      tag_225\n        /* \"#utility.yul\":4328:4332   */\n      0x00\n        /* \"#utility.yul\":4323:4326   */\n      dup7\n        /* \"#utility.yul\":4319:4333   */\n      add\n        /* \"#utility.yul\":4305:4317   */\n      dup3\n        /* \"#utility.yul\":4271:4334   */\n      tag_120\n      jump\t// in\n    tag_225:\n        /* \"#utility.yul\":4182:4344   */\n      pop\n        /* \"#utility.yul\":4427:4431   */\n      0x20\n        /* \"#utility.yul\":4420:4425   */\n      dup4\n        /* \"#utility.yul\":4416:4432   */\n      add\n        /* \"#utility.yul\":4410:4433   */\n      mload\n        /* \"#utility.yul\":4446:4509   */\n      tag_226\n        /* \"#utility.yul\":4503:4507   */\n      0x20\n        /* \"#utility.yul\":4498:4501   */\n      dup7\n        /* \"#utility.yul\":4494:4508   */\n      add\n        /* \"#utility.yul\":4480:4492   */\n      dup3\n        /* \"#utility.yul\":4446:4509   */\n      tag_121\n      jump\t// in\n    tag_226:\n        /* \"#utility.yul\":4354:4519   */\n      pop\n        /* \"#utility.yul\":4608:4612   */\n      0x40\n        /* \"#utility.yul\":4601:4606   */\n      dup4\n        /* \"#utility.yul\":4597:4613   */\n      add\n        /* \"#utility.yul\":4591:4614   */\n      mload\n        /* \"#utility.yul\":4661:4664   */\n      dup5\n        /* \"#utility.yul\":4655:4659   */\n      dup3\n        /* \"#utility.yul\":4651:4665   */\n      sub\n        /* \"#utility.yul\":4644:4648   */\n      0x40\n        /* \"#utility.yul\":4639:4642   */\n      dup7\n        /* \"#utility.yul\":4635:4649   */\n      add\n        /* \"#utility.yul\":4628:4666   */\n      mstore\n        /* \"#utility.yul\":4687:4760   */\n      tag_227\n        /* \"#utility.yul\":4755:4759   */\n      dup3\n        /* \"#utility.yul\":4741:4753   */\n      dup3\n        /* \"#utility.yul\":4687:4760   */\n      tag_126\n      jump\t// in\n    tag_227:\n        /* \"#utility.yul\":4679:4760   */\n      swap2\n      pop\n        /* \"#utility.yul\":4529:4771   */\n      pop\n        /* \"#utility.yul\":4857:4861   */\n      0x60\n        /* \"#utility.yul\":4850:4855   */\n      dup4\n        /* \"#utility.yul\":4846:4862   */\n      add\n        /* \"#utility.yul\":4840:4863   */\n      mload\n        /* \"#utility.yul\":4910:4913   */\n      dup5\n        /* \"#utility.yul\":4904:4908   */\n      dup3\n        /* \"#utility.yul\":4900:4914   */\n      sub\n        /* \"#utility.yul\":4893:4897   */\n      0x60\n        /* \"#utility.yul\":4888:4891   */\n      dup7\n        /* \"#utility.yul\":4884:4898   */\n      add\n        /* \"#utility.yul\":4877:4915   */\n      mstore\n        /* \"#utility.yul\":4936:5009   */\n      tag_228\n        /* \"#utility.yul\":5004:5008   */\n      dup3\n        /* \"#utility.yul\":4990:5002   */\n      dup3\n        /* \"#utility.yul\":4936:5009   */\n      tag_126\n      jump\t// in\n    tag_228:\n        /* \"#utility.yul\":4928:5009   */\n      swap2\n      pop\n        /* \"#utility.yul\":4781:5020   */\n      pop\n        /* \"#utility.yul\":5104:5108   */\n      0x80\n        /* \"#utility.yul\":5097:5102   */\n      dup4\n        /* \"#utility.yul\":5093:5109   */\n      add\n        /* \"#utility.yul\":5087:5110   */\n      mload\n        /* \"#utility.yul\":5123:5193   */\n      tag_229\n        /* \"#utility.yul\":5187:5191   */\n      0x80\n        /* \"#utility.yul\":5182:5185   */\n      dup7\n        /* \"#utility.yul\":5178:5192   */\n      add\n        /* \"#utility.yul\":5164:5176   */\n      dup3\n        /* \"#utility.yul\":5123:5193   */\n      tag_130\n      jump\t// in\n    tag_229:\n        /* \"#utility.yul\":5030:5203   */\n      pop\n        /* \"#utility.yul\":5220:5224   */\n      dup1\n        /* \"#utility.yul\":5213:5224   */\n      swap2\n      pop\n        /* \"#utility.yul\":4136:5230   */\n      pop\n        /* \"#utility.yul\":4022:5230   */\n      swap3\n      swap2\n      pop\n      pop\n      jump\t// out\n        /* \"#utility.yul\":5236:5589   */\n    tag_21:\n        /* \"#utility.yul\":5369:5373   */\n      0x00\n        /* \"#utility.yul\":5407:5409   */\n      0x20\n        /* \"#utility.yul\":5396:5405   */\n      dup3\n        /* \"#utility.yul\":5392:5410   */\n      add\n        /* \"#utility.yul\":5384:5410   */\n      swap1\n      pop\n        /* \"#utility.yul\":5456:5465   */\n      dup2\n        /* \"#utility.yul\":5450:5454   */\n      dup2\n        /* \"#utility.yul\":5446:5466   */\n      sub\n        /* \"#utility.yul\":5442:5443   */\n      0x00\n        /* \"#utility.yul\":5431:5440   */\n      dup4\n        /* \"#utility.yul\":5427:5444   */\n      add\n        /* \"#utility.yul\":5420:5467   */\n      mstore\n        /* \"#utility.yul\":5484:5582   */\n      tag_231\n        /* \"#utility.yul\":5577:5581   */\n      dup2\n        /* \"#utility.yul\":5568:5574   */\n      dup5\n        /* \"#utility.yul\":5484:5582   */\n      tag_131\n      jump\t// in\n    tag_231:\n        /* \"#utility.yul\":5476:5582   */\n      swap1\n      pop\n        /* \"#utility.yul\":5236:5589   */\n      swap3\n      swap2\n      pop\n      pop\n      jump\t// out\n        /* \"#utility.yul\":5595:5703   */\n    tag_132:\n        /* \"#utility.yul\":5677:5678   */\n      0x03\n        /* \"#utility.yul\":5670:5675   */\n      dup2\n        /* \"#utility.yul\":5667:5679   */\n      lt\n        /* \"#utility.yul\":5657:5697   */\n      tag_233\n      jumpi\n        /* \"#utility.yul\":5693:5694   */\n      0x00\n        /* \"#utility.yul\":5690:5691   */\n      dup1\n        /* \"#utility.yul\":5683:5695   */\n      revert\n        /* \"#utility.yul\":5657:5697   */\n    tag_233:\n        /* \"#utility.yul\":5595:5703   */\n      pop\n      jump\t// out\n        /* \"#utility.yul\":5709:5866   */\n    tag_133:\n        /* \"#utility.yul\":5764:5769   */\n      0x00\n        /* \"#utility.yul\":5802:5808   */\n      dup2\n        /* \"#utility.yul\":5789:5809   */\n      calldataload\n        /* \"#utility.yul\":5780:5809   */\n      swap1\n      pop\n        /* \"#utility.yul\":5818:5860   */\n      tag_235\n        /* \"#utility.yul\":5854:5859   */\n      dup2\n        /* \"#utility.yul\":5818:5860   */\n      tag_132\n      jump\t// in\n    tag_235:\n        /* \"#utility.yul\":5709:5866   */\n      swap3\n      swap2\n      pop\n      pop\n      jump\t// out\n        /* \"#utility.yul\":5872:6364   */\n    tag_24:\n        /* \"#utility.yul\":5949:5955   */\n      0x00\n        /* \"#utility.yul\":5957:5963   */\n      dup1\n        /* \"#utility.yul\":6006:6008   */\n      0x40\n        /* \"#utility.yul\":5994:6003   */\n      dup4\n        /* \"#utility.yul\":5985:5992   */\n      dup6\n        /* \"#utility.yul\":5981:6004   */\n      sub\n        /* \"#utility.yul\":5977:6009   */\n      slt\n        /* \"#utility.yul\":5974:6093   */\n      iszero\n      tag_237\n      jumpi\n        /* \"#utility.yul\":6012:6091   */\n      tag_238\n      tag_111\n      jump\t// in\n    tag_238:\n        /* \"#utility.yul\":5974:6093   */\n    tag_237:\n        /* \"#utility.yul\":6132:6133   */\n      0x00\n        /* \"#utility.yul\":6157:6210   */\n      tag_239\n        /* \"#utility.yul\":6202:6209   */\n      dup6\n        /* \"#utility.yul\":6193:6199   */\n      dup3\n        /* \"#utility.yul\":6182:6191   */\n      dup7\n        /* \"#utility.yul\":6178:6200   */\n      add\n        /* \"#utility.yul\":6157:6210   */\n      tag_115\n      jump\t// in\n    tag_239:\n        /* \"#utility.yul\":6147:6210   */\n      swap3\n      pop\n        /* \"#utility.yul\":6103:6220   */\n      pop\n        /* \"#utility.yul\":6259:6261   */\n      0x20\n        /* \"#utility.yul\":6285:6347   */\n      tag_240\n        /* \"#utility.yul\":6339:6346   */\n      dup6\n        /* \"#utility.yul\":6330:6336   */\n      dup3\n        /* \"#utility.yul\":6319:6328   */\n      dup7\n        /* \"#utility.yul\":6315:6337   */\n      add\n        /* \"#utility.yul\":6285:6347   */\n      tag_133\n      jump\t// in\n    tag_240:\n        /* \"#utility.yul\":6275:6347   */\n      swap2\n      pop\n        /* \"#utility.yul\":6230:6357   */\n      pop\n        /* \"#utility.yul\":5872:6364   */\n      swap3\n      pop\n      swap3\n      swap1\n      pop\n      jump\t// out\n        /* \"#utility.yul\":6370:6487   */\n    tag_134:\n        /* \"#utility.yul\":6479:6480   */\n      0x00\n        /* \"#utility.yul\":6476:6477   */\n      dup1\n        /* \"#utility.yul\":6469:6481   */\n      revert\n        /* \"#utility.yul\":6493:6610   */\n    tag_135:\n        /* \"#utility.yul\":6602:6603   */\n      0x00\n        /* \"#utility.yul\":6599:6600   */\n      dup1\n        /* \"#utility.yul\":6592:6604   */\n      revert\n        /* \"#utility.yul\":6616:6796   */\n    tag_136:\n        /* \"#utility.yul\":6664:6741   */\n      0x4e487b7100000000000000000000000000000000000000000000000000000000\n        /* \"#utility.yul\":6661:6662   */\n      0x00\n        /* \"#utility.yul\":6654:6742   */\n      mstore\n        /* \"#utility.yul\":6761:6765   */\n      0x41\n        /* \"#utility.yul\":6758:6759   */\n      0x04\n        /* \"#utility.yul\":6751:6766   */\n      mstore\n        /* \"#utility.yul\":6785:6789   */\n      0x24\n        /* \"#utility.yul\":6782:6783   */\n      0x00\n        /* \"#utility.yul\":6775:6790   */\n      revert\n        /* \"#utility.yul\":6802:7083   */\n    tag_137:\n        /* \"#utility.yul\":6885:6912   */\n      tag_245\n        /* \"#utility.yul\":6907:6911   */\n      dup3\n        /* \"#utility.yul\":6885:6912   */\n      tag_125\n      jump\t// in\n    tag_245:\n        /* \"#utility.yul\":6877:6883   */\n      dup2\n        /* \"#utility.yul\":6873:6913   */\n      add\n        /* \"#utility.yul\":7015:7021   */\n      dup2\n        /* \"#utility.yul\":7003:7013   */\n      dup2\n        /* \"#utility.yul\":7000:7022   */\n      lt\n        /* \"#utility.yul\":6979:6997   */\n      0xffffffffffffffff\n        /* \"#utility.yul\":6967:6977   */\n      dup3\n        /* \"#utility.yul\":6964:6998   */\n      gt\n        /* \"#utility.yul\":6961:7023   */\n      or\n        /* \"#utility.yul\":6958:7046   */\n      iszero\n      tag_246\n      jumpi\n        /* \"#utility.yul\":7026:7044   */\n      tag_247\n      tag_136\n      jump\t// in\n    tag_247:\n        /* \"#utility.yul\":6958:7046   */\n    tag_246:\n        /* \"#utility.yul\":7066:7076   */\n      dup1\n        /* \"#utility.yul\":7062:7064   */\n      0x40\n        /* \"#utility.yul\":7055:7077   */\n      mstore\n        /* \"#utility.yul\":6845:7083   */\n      pop\n        /* \"#utility.yul\":6802:7083   */\n      pop\n      pop\n      jump\t// out\n        /* \"#utility.yul\":7089:7218   */\n    tag_138:\n        /* \"#utility.yul\":7123:7129   */\n      0x00\n        /* \"#utility.yul\":7150:7170   */\n      tag_249\n      tag_110\n      jump\t// in\n    tag_249:\n        /* \"#utility.yul\":7140:7170   */\n      swap1\n      pop\n        /* \"#utility.yul\":7179:7212   */\n      tag_250\n        /* \"#utility.yul\":7207:7211   */\n      dup3\n        /* \"#utility.yul\":7199:7205   */\n      dup3\n        /* \"#utility.yul\":7179:7212   */\n      tag_137\n      jump\t// in\n    tag_250:\n        /* \"#utility.yul\":7089:7218   */\n      swap2\n      swap1\n      pop\n      jump\t// out\n        /* \"#utility.yul\":7224:7532   */\n    tag_139:\n        /* \"#utility.yul\":7286:7290   */\n      0x00\n        /* \"#utility.yul\":7376:7394   */\n      0xffffffffffffffff\n        /* \"#utility.yul\":7368:7374   */\n      dup3\n        /* \"#utility.yul\":7365:7395   */\n      gt\n        /* \"#utility.yul\":7362:7418   */\n      iszero\n      tag_252\n      jumpi\n        /* \"#utility.yul\":7398:7416   */\n      tag_253\n      tag_136\n      jump\t// in\n    tag_253:\n        /* \"#utility.yul\":7362:7418   */\n    tag_252:\n        /* \"#utility.yul\":7436:7465   */\n      tag_254\n        /* \"#utility.yul\":7458:7464   */\n      dup3\n        /* \"#utility.yul\":7436:7465   */\n      tag_125\n      jump\t// in\n    tag_254:\n        /* \"#utility.yul\":7428:7465   */\n      swap1\n      pop\n        /* \"#utility.yul\":7520:7524   */\n      0x20\n        /* \"#utility.yul\":7514:7518   */\n      dup2\n        /* \"#utility.yul\":7510:7525   */\n      add\n        /* \"#utility.yul\":7502:7525   */\n      swap1\n      pop\n        /* \"#utility.yul\":7224:7532   */\n      swap2\n      swap1\n      pop\n      jump\t// out\n        /* \"#utility.yul\":7538:7684   */\n    tag_140:\n        /* \"#utility.yul\":7635:7641   */\n      dup3\n        /* \"#utility.yul\":7630:7633   */\n      dup2\n        /* \"#utility.yul\":7625:7628   */\n      dup4\n        /* \"#utility.yul\":7612:7642   */\n      calldatacopy\n        /* \"#utility.yul\":7676:7677   */\n      0x00\n        /* \"#utility.yul\":7667:7673   */\n      dup4\n        /* \"#utility.yul\":7662:7665   */\n      dup4\n        /* \"#utility.yul\":7658:7674   */\n      add\n        /* \"#utility.yul\":7651:7678   */\n      mstore\n        /* \"#utility.yul\":7538:7684   */\n      pop\n      pop\n      pop\n      jump\t// out\n        /* \"#utility.yul\":7690:8115   */\n    tag_141:\n        /* \"#utility.yul\":7768:7773   */\n      0x00\n        /* \"#utility.yul\":7793:7859   */\n      tag_257\n        /* \"#utility.yul\":7809:7858   */\n      tag_258\n        /* \"#utility.yul\":7851:7857   */\n      dup5\n        /* \"#utility.yul\":7809:7858   */\n      tag_139\n      jump\t// in\n    tag_258:\n        /* \"#utility.yul\":7793:7859   */\n      tag_138\n      jump\t// in\n    tag_257:\n        /* \"#utility.yul\":7784:7859   */\n      swap1\n      pop\n        /* \"#utility.yul\":7882:7888   */\n      dup3\n        /* \"#utility.yul\":7875:7880   */\n      dup2\n        /* \"#utility.yul\":7868:7889   */\n      mstore\n        /* \"#utility.yul\":7920:7924   */\n      0x20\n        /* \"#utility.yul\":7913:7918   */\n      dup2\n        /* \"#utility.yul\":7909:7925   */\n      add\n        /* \"#utility.yul\":7958:7961   */\n      dup5\n        /* \"#utility.yul\":7949:7955   */\n      dup5\n        /* \"#utility.yul\":7944:7947   */\n      dup5\n        /* \"#utility.yul\":7940:7956   */\n      add\n        /* \"#utility.yul\":7937:7962   */\n      gt\n        /* \"#utility.yul\":7934:8046   */\n      iszero\n      tag_259\n      jumpi\n        /* \"#utility.yul\":7965:8044   */\n      tag_260\n      tag_135\n      jump\t// in\n    tag_260:\n        /* \"#utility.yul\":7934:8046   */\n    tag_259:\n        /* \"#utility.yul\":8055:8109   */\n      tag_261\n        /* \"#utility.yul\":8102:8108   */\n      dup5\n        /* \"#utility.yul\":8097:8100   */\n      dup3\n        /* \"#utility.yul\":8092:8095   */\n      dup6\n        /* \"#utility.yul\":8055:8109   */\n      tag_140\n      jump\t// in\n    tag_261:\n        /* \"#utility.yul\":7774:8115   */\n      pop\n        /* \"#utility.yul\":7690:8115   */\n      swap4\n      swap3\n      pop\n      pop\n      pop\n      jump\t// out\n        /* \"#utility.yul\":8135:8475   */\n    tag_142:\n        /* \"#utility.yul\":8191:8196   */\n      0x00\n        /* \"#utility.yul\":8240:8243   */\n      dup3\n        /* \"#utility.yul\":8233:8237   */\n      0x1f\n        /* \"#utility.yul\":8225:8231   */\n      dup4\n        /* \"#utility.yul\":8221:8238   */\n      add\n        /* \"#utility.yul\":8217:8244   */\n      slt\n        /* \"#utility.yul\":8207:8329   */\n      tag_263\n      jumpi\n        /* \"#utility.yul\":8248:8327   */\n      tag_264\n      tag_134\n      jump\t// in\n    tag_264:\n        /* \"#utility.yul\":8207:8329   */\n    tag_263:\n        /* \"#utility.yul\":8365:8371   */\n      dup2\n        /* \"#utility.yul\":8352:8372   */\n      calldataload\n        /* \"#utility.yul\":8390:8469   */\n      tag_265\n        /* \"#utility.yul\":8465:8468   */\n      dup5\n        /* \"#utility.yul\":8457:8463   */\n      dup3\n        /* \"#utility.yul\":8450:8454   */\n      0x20\n        /* \"#utility.yul\":8442:8448   */\n      dup7\n        /* \"#utility.yul\":8438:8455   */\n      add\n        /* \"#utility.yul\":8390:8469   */\n      tag_141\n      jump\t// in\n    tag_265:\n        /* \"#utility.yul\":8381:8469   */\n      swap2\n      pop\n        /* \"#utility.yul\":8197:8475   */\n      pop\n        /* \"#utility.yul\":8135:8475   */\n      swap3\n      swap2\n      pop\n      pop\n      jump\t// out\n        /* \"#utility.yul\":8481:9135   */\n    tag_28:\n        /* \"#utility.yul\":8559:8565   */\n      0x00\n        /* \"#utility.yul\":8567:8573   */\n      dup1\n        /* \"#utility.yul\":8616:8618   */\n      0x40\n        /* \"#utility.yul\":8604:8613   */\n      dup4\n        /* \"#utility.yul\":8595:8602   */\n      dup6\n        /* \"#utility.yul\":8591:8614   */\n      sub\n        /* \"#utility.yul\":8587:8619   */\n      slt\n        /* \"#utility.yul\":8584:8703   */\n      iszero\n      tag_267\n      jumpi\n        /* \"#utility.yul\":8622:8701   */\n      tag_268\n      tag_111\n      jump\t// in\n    tag_268:\n        /* \"#utility.yul\":8584:8703   */\n    tag_267:\n        /* \"#utility.yul\":8742:8743   */\n      0x00\n        /* \"#utility.yul\":8767:8820   */\n      tag_269\n        /* \"#utility.yul\":8812:8819   */\n      dup6\n        /* \"#utility.yul\":8803:8809   */\n      dup3\n        /* \"#utility.yul\":8792:8801   */\n      dup7\n        /* \"#utility.yul\":8788:8810   */\n      add\n        /* \"#utility.yul\":8767:8820   */\n      tag_115\n      jump\t// in\n    tag_269:\n        /* \"#utility.yul\":8757:8820   */\n      swap3\n      pop\n        /* \"#utility.yul\":8713:8830   */\n      pop\n        /* \"#utility.yul\":8897:8899   */\n      0x20\n        /* \"#utility.yul\":8886:8895   */\n      dup4\n        /* \"#utility.yul\":8882:8900   */\n      add\n        /* \"#utility.yul\":8869:8901   */\n      calldataload\n        /* \"#utility.yul\":8928:8946   */\n      0xffffffffffffffff\n        /* \"#utility.yul\":8920:8926   */\n      dup2\n        /* \"#utility.yul\":8917:8947   */\n      gt\n        /* \"#utility.yul\":8914:9031   */\n      iszero\n      tag_270\n      jumpi\n        /* \"#utility.yul\":8950:9029   */\n      tag_271\n      tag_112\n      jump\t// in\n    tag_271:\n        /* \"#utility.yul\":8914:9031   */\n    tag_270:\n        /* \"#utility.yul\":9055:9118   */\n      tag_272\n        /* \"#utility.yul\":9110:9117   */\n      dup6\n        /* \"#utility.yul\":9101:9107   */\n      dup3\n        /* \"#utility.yul\":9090:9099   */\n      dup7\n        /* \"#utility.yul\":9086:9108   */\n      add\n        /* \"#utility.yul\":9055:9118   */\n      tag_142\n      jump\t// in\n    tag_272:\n        /* \"#utility.yul\":9045:9118   */\n      swap2\n      pop\n        /* \"#utility.yul\":8840:9128   */\n      pop\n        /* \"#utility.yul\":8481:9135   */\n      swap3\n      pop\n      swap3\n      swap1\n      pop\n      jump\t// out\n        /* \"#utility.yul\":9141:9259   */\n    tag_143:\n        /* \"#utility.yul\":9228:9252   */\n      tag_274\n        /* \"#utility.yul\":9246:9251   */\n      dup2\n        /* \"#utility.yul\":9228:9252   */\n      tag_113\n      jump\t// in\n    tag_274:\n        /* \"#utility.yul\":9223:9226   */\n      dup3\n        /* \"#utility.yul\":9216:9253   */\n      mstore\n        /* \"#utility.yul\":9141:9259   */\n      pop\n      pop\n      jump\t// out\n        /* \"#utility.yul\":9265:9487   */\n    tag_33:\n        /* \"#utility.yul\":9358:9362   */\n      0x00\n        /* \"#utility.yul\":9396:9398   */\n      0x20\n        /* \"#utility.yul\":9385:9394   */\n      dup3\n        /* \"#utility.yul\":9381:9399   */\n      add\n        /* \"#utility.yul\":9373:9399   */\n      swap1\n      pop\n        /* \"#utility.yul\":9409:9480   */\n      tag_276\n        /* \"#utility.yul\":9477:9478   */\n      0x00\n        /* \"#utility.yul\":9466:9475   */\n      dup4\n        /* \"#utility.yul\":9462:9479   */\n      add\n        /* \"#utility.yul\":9453:9459   */\n      dup5\n        /* \"#utility.yul\":9409:9480   */\n      tag_143\n      jump\t// in\n    tag_276:\n        /* \"#utility.yul\":9265:9487   */\n      swap3\n      swap2\n      pop\n      pop\n      jump\t// out\n        /* \"#utility.yul\":9493:9611   */\n    tag_144:\n        /* \"#utility.yul\":9580:9604   */\n      tag_278\n        /* \"#utility.yul\":9598:9603   */\n      dup2\n        /* \"#utility.yul\":9580:9604   */\n      tag_117\n      jump\t// in\n    tag_278:\n        /* \"#utility.yul\":9575:9578   */\n      dup3\n        /* \"#utility.yul\":9568:9605   */\n      mstore\n        /* \"#utility.yul\":9493:9611   */\n      pop\n      pop\n      jump\t// out\n        /* \"#utility.yul\":9617:9786   */\n    tag_145:\n        /* \"#utility.yul\":9701:9712   */\n      0x00\n        /* \"#utility.yul\":9735:9741   */\n      dup3\n        /* \"#utility.yul\":9730:9733   */\n      dup3\n        /* \"#utility.yul\":9723:9742   */\n      mstore\n        /* \"#utility.yul\":9775:9779   */\n      0x20\n        /* \"#utility.yul\":9770:9773   */\n      dup3\n        /* \"#utility.yul\":9766:9780   */\n      add\n        /* \"#utility.yul\":9751:9780   */\n      swap1\n      pop\n        /* \"#utility.yul\":9617:9786   */\n      swap3\n      swap2\n      pop\n      pop\n      jump\t// out\n        /* \"#utility.yul\":9792:10169   */\n    tag_146:\n        /* \"#utility.yul\":9880:9883   */\n      0x00\n        /* \"#utility.yul\":9908:9947   */\n      tag_281\n        /* \"#utility.yul\":9941:9946   */\n      dup3\n        /* \"#utility.yul\":9908:9947   */\n      tag_122\n      jump\t// in\n    tag_281:\n        /* \"#utility.yul\":9963:10034   */\n      tag_282\n        /* \"#utility.yul\":10027:10033   */\n      dup2\n        /* \"#utility.yul\":10022:10025   */\n      dup6\n        /* \"#utility.yul\":9963:10034   */\n      tag_145\n      jump\t// in\n    tag_282:\n        /* \"#utility.yul\":9956:10034   */\n      swap4\n      pop\n        /* \"#utility.yul\":10043:10108   */\n      tag_283\n        /* \"#utility.yul\":10101:10107   */\n      dup2\n        /* \"#utility.yul\":10096:10099   */\n      dup6\n        /* \"#utility.yul\":10089:10093   */\n      0x20\n        /* \"#utility.yul\":10082:10087   */\n      dup7\n        /* \"#utility.yul\":10078:10094   */\n      add\n        /* \"#utility.yul\":10043:10108   */\n      tag_124\n      jump\t// in\n    tag_283:\n        /* \"#utility.yul\":10133:10162   */\n      tag_284\n        /* \"#utility.yul\":10155:10161   */\n      dup2\n        /* \"#utility.yul\":10133:10162   */\n      tag_125\n      jump\t// in\n    tag_284:\n        /* \"#utility.yul\":10128:10131   */\n      dup5\n        /* \"#utility.yul\":10124:10163   */\n      add\n        /* \"#utility.yul\":10117:10163   */\n      swap2\n      pop\n        /* \"#utility.yul\":9884:10169   */\n      pop\n        /* \"#utility.yul\":9792:10169   */\n      swap3\n      swap2\n      pop\n      pop\n      jump\t// out\n        /* \"#utility.yul\":10175:10320   */\n    tag_147:\n        /* \"#utility.yul\":10269:10313   */\n      tag_286\n        /* \"#utility.yul\":10307:10312   */\n      dup2\n        /* \"#utility.yul\":10269:10313   */\n      tag_129\n      jump\t// in\n    tag_286:\n        /* \"#utility.yul\":10264:10267   */\n      dup3\n        /* \"#utility.yul\":10257:10314   */\n      mstore\n        /* \"#utility.yul\":10175:10320   */\n      pop\n      pop\n      jump\t// out\n        /* \"#utility.yul\":10326:11186   */\n    tag_41:\n        /* \"#utility.yul\":10578:10582   */\n      0x00\n        /* \"#utility.yul\":10616:10619   */\n      0xa0\n        /* \"#utility.yul\":10605:10614   */\n      dup3\n        /* \"#utility.yul\":10601:10620   */\n      add\n        /* \"#utility.yul\":10593:10620   */\n      swap1\n      pop\n        /* \"#utility.yul\":10630:10701   */\n      tag_288\n        /* \"#utility.yul\":10698:10699   */\n      0x00\n        /* \"#utility.yul\":10687:10696   */\n      dup4\n        /* \"#utility.yul\":10683:10700   */\n      add\n        /* \"#utility.yul\":10674:10680   */\n      dup9\n        /* \"#utility.yul\":10630:10701   */\n      tag_143\n      jump\t// in\n    tag_288:\n        /* \"#utility.yul\":10711:10783   */\n      tag_289\n        /* \"#utility.yul\":10779:10781   */\n      0x20\n        /* \"#utility.yul\":10768:10777   */\n      dup4\n        /* \"#utility.yul\":10764:10782   */\n      add\n        /* \"#utility.yul\":10755:10761   */\n      dup8\n        /* \"#utility.yul\":10711:10783   */\n      tag_144\n      jump\t// in\n    tag_289:\n        /* \"#utility.yul\":10830:10839   */\n      dup2\n        /* \"#utility.yul\":10824:10828   */\n      dup2\n        /* \"#utility.yul\":10820:10840   */\n      sub\n        /* \"#utility.yul\":10815:10817   */\n      0x40\n        /* \"#utility.yul\":10804:10813   */\n      dup4\n        /* \"#utility.yul\":10800:10818   */\n      add\n        /* \"#utility.yul\":10793:10841   */\n      mstore\n        /* \"#utility.yul\":10858:10936   */\n      tag_290\n        /* \"#utility.yul\":10931:10935   */\n      dup2\n        /* \"#utility.yul\":10922:10928   */\n      dup7\n        /* \"#utility.yul\":10858:10936   */\n      tag_146\n      jump\t// in\n    tag_290:\n        /* \"#utility.yul\":10850:10936   */\n      swap1\n      pop\n        /* \"#utility.yul\":10983:10992   */\n      dup2\n        /* \"#utility.yul\":10977:10981   */\n      dup2\n        /* \"#utility.yul\":10973:10993   */\n      sub\n        /* \"#utility.yul\":10968:10970   */\n      0x60\n        /* \"#utility.yul\":10957:10966   */\n      dup4\n        /* \"#utility.yul\":10953:10971   */\n      add\n        /* \"#utility.yul\":10946:10994   */\n      mstore\n        /* \"#utility.yul\":11011:11089   */\n      tag_291\n        /* \"#utility.yul\":11084:11088   */\n      dup2\n        /* \"#utility.yul\":11075:11081   */\n      dup6\n        /* \"#utility.yul\":11011:11089   */\n      tag_146\n      jump\t// in\n    tag_291:\n        /* \"#utility.yul\":11003:11089   */\n      swap1\n      pop\n        /* \"#utility.yul\":11099:11179   */\n      tag_292\n        /* \"#utility.yul\":11174:11177   */\n      0x80\n        /* \"#utility.yul\":11163:11172   */\n      dup4\n        /* \"#utility.yul\":11159:11178   */\n      add\n        /* \"#utility.yul\":11150:11156   */\n      dup5\n        /* \"#utility.yul\":11099:11179   */\n      tag_147\n      jump\t// in\n    tag_292:\n        /* \"#utility.yul\":10326:11186   */\n      swap7\n      swap6\n      pop\n      pop\n      pop\n      pop\n      pop\n      pop\n      jump\t// out\n        /* \"#utility.yul\":11192:11846   */\n    tag_44:\n        /* \"#utility.yul\":11270:11276   */\n      0x00\n        /* \"#utility.yul\":11278:11284   */\n      dup1\n        /* \"#utility.yul\":11327:11329   */\n      0x40\n        /* \"#utility.yul\":11315:11324   */\n      dup4\n        /* \"#utility.yul\":11306:11313   */\n      dup6\n        /* \"#utility.yul\":11302:11325   */\n      sub\n        /* \"#utility.yul\":11298:11330   */\n      slt\n        /* \"#utility.yul\":11295:11414   */\n      iszero\n      tag_294\n      jumpi\n        /* \"#utility.yul\":11333:11412   */\n      tag_295\n      tag_111\n      jump\t// in\n    tag_295:\n        /* \"#utility.yul\":11295:11414   */\n    tag_294:\n        /* \"#utility.yul\":11481:11482   */\n      0x00\n        /* \"#utility.yul\":11470:11479   */\n      dup4\n        /* \"#utility.yul\":11466:11483   */\n      add\n        /* \"#utility.yul\":11453:11484   */\n      calldataload\n        /* \"#utility.yul\":11511:11529   */\n      0xffffffffffffffff\n        /* \"#utility.yul\":11503:11509   */\n      dup2\n        /* \"#utility.yul\":11500:11530   */\n      gt\n        /* \"#utility.yul\":11497:11614   */\n      iszero\n      tag_296\n      jumpi\n        /* \"#utility.yul\":11533:11612   */\n      tag_297\n      tag_112\n      jump\t// in\n    tag_297:\n        /* \"#utility.yul\":11497:11614   */\n    tag_296:\n        /* \"#utility.yul\":11638:11701   */\n      tag_298\n        /* \"#utility.yul\":11693:11700   */\n      dup6\n        /* \"#utility.yul\":11684:11690   */\n      dup3\n        /* \"#utility.yul\":11673:11682   */\n      dup7\n        /* \"#utility.yul\":11669:11691   */\n      add\n        /* \"#utility.yul\":11638:11701   */\n      tag_142\n      jump\t// in\n    tag_298:\n        /* \"#utility.yul\":11628:11701   */\n      swap3\n      pop\n        /* \"#utility.yul\":11424:11711   */\n      pop\n        /* \"#utility.yul\":11750:11752   */\n      0x20\n        /* \"#utility.yul\":11776:11829   */\n      tag_299\n        /* \"#utility.yul\":11821:11828   */\n      dup6\n        /* \"#utility.yul\":11812:11818   */\n      dup3\n        /* \"#utility.yul\":11801:11810   */\n      dup7\n        /* \"#utility.yul\":11797:11819   */\n      add\n        /* \"#utility.yul\":11776:11829   */\n      tag_119\n      jump\t// in\n    tag_299:\n        /* \"#utility.yul\":11766:11829   */\n      swap2\n      pop\n        /* \"#utility.yul\":11721:11839   */\n      pop\n        /* \"#utility.yul\":11192:11846   */\n      swap3\n      pop\n      swap3\n      swap1\n      pop\n      jump\t// out\n        /* \"#utility.yul\":11852:12076   */\n    tag_148:\n        /* \"#utility.yul\":11992:12026   */\n      0x4f6e6c7920746865206f776e65722063616e207472616e73666572206f776e65\n        /* \"#utility.yul\":11988:11989   */\n      0x00\n        /* \"#utility.yul\":11980:11986   */\n      dup3\n        /* \"#utility.yul\":11976:11990   */\n      add\n        /* \"#utility.yul\":11969:12027   */\n      mstore\n        /* \"#utility.yul\":12061:12068   */\n      0x7273686970000000000000000000000000000000000000000000000000000000\n        /* \"#utility.yul\":12056:12058   */\n      0x20\n        /* \"#utility.yul\":12048:12054   */\n      dup3\n        /* \"#utility.yul\":12044:12059   */\n      add\n        /* \"#utility.yul\":12037:12069   */\n      mstore\n        /* \"#utility.yul\":11852:12076   */\n      pop\n      jump\t// out\n        /* \"#utility.yul\":12082:12448   */\n    tag_149:\n        /* \"#utility.yul\":12224:12227   */\n      0x00\n        /* \"#utility.yul\":12245:12312   */\n      tag_302\n        /* \"#utility.yul\":12309:12311   */\n      0x25\n        /* \"#utility.yul\":12304:12307   */\n      dup4\n        /* \"#utility.yul\":12245:12312   */\n      tag_145\n      jump\t// in\n    tag_302:\n        /* \"#utility.yul\":12238:12312   */\n      swap2\n      pop\n        /* \"#utility.yul\":12321:12414   */\n      tag_303\n        /* \"#utility.yul\":12410:12413   */\n      dup3\n        /* \"#utility.yul\":12321:12414   */\n      tag_148\n      jump\t// in\n    tag_303:\n        /* \"#utility.yul\":12439:12441   */\n      0x40\n        /* \"#utility.yul\":12434:12437   */\n      dup3\n        /* \"#utility.yul\":12430:12442   */\n      add\n        /* \"#utility.yul\":12423:12442   */\n      swap1\n      pop\n        /* \"#utility.yul\":12082:12448   */\n      swap2\n      swap1\n      pop\n      jump\t// out\n        /* \"#utility.yul\":12454:12873   */\n    tag_49:\n        /* \"#utility.yul\":12620:12624   */\n      0x00\n        /* \"#utility.yul\":12658:12660   */\n      0x20\n        /* \"#utility.yul\":12647:12656   */\n      dup3\n        /* \"#utility.yul\":12643:12661   */\n      add\n        /* \"#utility.yul\":12635:12661   */\n      swap1\n      pop\n        /* \"#utility.yul\":12707:12716   */\n      dup2\n        /* \"#utility.yul\":12701:12705   */\n      dup2\n        /* \"#utility.yul\":12697:12717   */\n      sub\n        /* \"#utility.yul\":12693:12694   */\n      0x00\n        /* \"#utility.yul\":12682:12691   */\n      dup4\n        /* \"#utility.yul\":12678:12695   */\n      add\n        /* \"#utility.yul\":12671:12718   */\n      mstore\n        /* \"#utility.yul\":12735:12866   */\n      tag_305\n        /* \"#utility.yul\":12861:12865   */\n      dup2\n        /* \"#utility.yul\":12735:12866   */\n      tag_149\n      jump\t// in\n    tag_305:\n        /* \"#utility.yul\":12727:12866   */\n      swap1\n      pop\n        /* \"#utility.yul\":12454:12873   */\n      swap2\n      swap1\n      pop\n      jump\t// out\n        /* \"#utility.yul\":12879:13059   */\n    tag_150:\n        /* \"#utility.yul\":12927:13004   */\n      0x4e487b7100000000000000000000000000000000000000000000000000000000\n        /* \"#utility.yul\":12924:12925   */\n      0x00\n        /* \"#utility.yul\":12917:13005   */\n      mstore\n        /* \"#utility.yul\":13024:13028   */\n      0x22\n        /* \"#utility.yul\":13021:13022   */\n      0x04\n        /* \"#utility.yul\":13014:13029   */\n      mstore\n        /* \"#utility.yul\":13048:13052   */\n      0x24\n        /* \"#utility.yul\":13045:13046   */\n      0x00\n        /* \"#utility.yul\":13038:13053   */\n      revert\n        /* \"#utility.yul\":13065:13385   */\n    tag_54:\n        /* \"#utility.yul\":13109:13115   */\n      0x00\n        /* \"#utility.yul\":13146:13147   */\n      0x02\n        /* \"#utility.yul\":13140:13144   */\n      dup3\n        /* \"#utility.yul\":13136:13148   */\n      div\n        /* \"#utility.yul\":13126:13148   */\n      swap1\n      pop\n        /* \"#utility.yul\":13193:13194   */\n      0x01\n        /* \"#utility.yul\":13187:13191   */\n      dup3\n        /* \"#utility.yul\":13183:13195   */\n      and\n        /* \"#utility.yul\":13214:13232   */\n      dup1\n        /* \"#utility.yul\":13204:13285   */\n      tag_308\n      jumpi\n        /* \"#utility.yul\":13270:13274   */\n      0x7f\n        /* \"#utility.yul\":13262:13268   */\n      dup3\n        /* \"#utility.yul\":13258:13275   */\n      and\n        /* \"#utility.yul\":13248:13275   */\n      swap2\n      pop\n        /* \"#utility.yul\":13204:13285   */\n    tag_308:\n        /* \"#utility.yul\":13332:13334   */\n      0x20\n        /* \"#utility.yul\":13324:13330   */\n      dup3\n        /* \"#utility.yul\":13321:13335   */\n      lt\n        /* \"#utility.yul\":13301:13319   */\n      dup2\n        /* \"#utility.yul\":13298:13336   */\n      sub\n        /* \"#utility.yul\":13295:13379   */\n      tag_309\n      jumpi\n        /* \"#utility.yul\":13351:13369   */\n      tag_310\n      tag_150\n      jump\t// in\n    tag_310:\n        /* \"#utility.yul\":13295:13379   */\n    tag_309:\n        /* \"#utility.yul\":13116:13385   */\n      pop\n        /* \"#utility.yul\":13065:13385   */\n      swap2\n      swap1\n      pop\n      jump\t// out\n        /* \"#utility.yul\":13391:13641   */\n    tag_151:\n        /* \"#utility.yul\":13531:13565   */\n      0x4f6e6c7920746865206f776e6572206f722064656c6976657279206167656e74\n        /* \"#utility.yul\":13527:13528   */\n      0x00\n        /* \"#utility.yul\":13519:13525   */\n      dup3\n        /* \"#utility.yul\":13515:13529   */\n      add\n        /* \"#utility.yul\":13508:13566   */\n      mstore\n        /* \"#utility.yul\":13600:13633   */\n      0x2063616e206368616e67652073746174757320746f2044454c49564552454400\n        /* \"#utility.yul\":13595:13597   */\n      0x20\n        /* \"#utility.yul\":13587:13593   */\n      dup3\n        /* \"#utility.yul\":13583:13598   */\n      add\n        /* \"#utility.yul\":13576:13634   */\n      mstore\n        /* \"#utility.yul\":13391:13641   */\n      pop\n      jump\t// out\n        /* \"#utility.yul\":13647:14013   */\n    tag_152:\n        /* \"#utility.yul\":13789:13792   */\n      0x00\n        /* \"#utility.yul\":13810:13877   */\n      tag_313\n        /* \"#utility.yul\":13874:13876   */\n      0x3f\n        /* \"#utility.yul\":13869:13872   */\n      dup4\n        /* \"#utility.yul\":13810:13877   */\n      tag_145\n      jump\t// in\n    tag_313:\n        /* \"#utility.yul\":13803:13877   */\n      swap2\n      pop\n        /* \"#utility.yul\":13886:13979   */\n      tag_314\n        /* \"#utility.yul\":13975:13978   */\n      dup3\n        /* \"#utility.yul\":13886:13979   */\n      tag_151\n      jump\t// in\n    tag_314:\n        /* \"#utility.yul\":14004:14006   */\n      0x40\n        /* \"#utility.yul\":13999:14002   */\n      dup3\n        /* \"#utility.yul\":13995:14007   */\n      add\n        /* \"#utility.yul\":13988:14007   */\n      swap1\n      pop\n        /* \"#utility.yul\":13647:14013   */\n      swap2\n      swap1\n      pop\n      jump\t// out\n        /* \"#utility.yul\":14019:14438   */\n    tag_77:\n        /* \"#utility.yul\":14185:14189   */\n      0x00\n        /* \"#utility.yul\":14223:14225   */\n      0x20\n        /* \"#utility.yul\":14212:14221   */\n      dup3\n        /* \"#utility.yul\":14208:14226   */\n      add\n        /* \"#utility.yul\":14200:14226   */\n      swap1\n      pop\n        /* \"#utility.yul\":14272:14281   */\n      dup2\n        /* \"#utility.yul\":14266:14270   */\n      dup2\n        /* \"#utility.yul\":14262:14282   */\n      sub\n        /* \"#utility.yul\":14258:14259   */\n      0x00\n        /* \"#utility.yul\":14247:14256   */\n      dup4\n        /* \"#utility.yul\":14243:14260   */\n      add\n        /* \"#utility.yul\":14236:14283   */\n      mstore\n        /* \"#utility.yul\":14300:14431   */\n      tag_316\n        /* \"#utility.yul\":14426:14430   */\n      dup2\n        /* \"#utility.yul\":14300:14431   */\n      tag_152\n      jump\t// in\n    tag_316:\n        /* \"#utility.yul\":14292:14431   */\n      swap1\n      pop\n        /* \"#utility.yul\":14019:14438   */\n      swap2\n      swap1\n      pop\n      jump\t// out\n        /* \"#utility.yul\":14444:14665   */\n    tag_153:\n        /* \"#utility.yul\":14584:14618   */\n      0x4f6e6c7920746865206f776e65722063616e20757064617465206c6f63617469\n        /* \"#utility.yul\":14580:14581   */\n      0x00\n        /* \"#utility.yul\":14572:14578   */\n      dup3\n        /* \"#utility.yul\":14568:14582   */\n      add\n        /* \"#utility.yul\":14561:14619   */\n      mstore\n        /* \"#utility.yul\":14653:14657   */\n      0x6f6e000000000000000000000000000000000000000000000000000000000000\n        /* \"#utility.yul\":14648:14650   */\n      0x20\n        /* \"#utility.yul\":14640:14646   */\n      dup3\n        /* \"#utility.yul\":14636:14651   */\n      add\n        /* \"#utility.yul\":14629:14658   */\n      mstore\n        /* \"#utility.yul\":14444:14665   */\n      pop\n      jump\t// out\n        /* \"#utility.yul\":14671:15037   */\n    tag_154:\n        /* \"#utility.yul\":14813:14816   */\n      0x00\n        /* \"#utility.yul\":14834:14901   */\n      tag_319\n        /* \"#utility.yul\":14898:14900   */\n      0x22\n        /* \"#utility.yul\":14893:14896   */\n      dup4\n        /* \"#utility.yul\":14834:14901   */\n      tag_145\n      jump\t// in\n    tag_319:\n        /* \"#utility.yul\":14827:14901   */\n      swap2\n      pop\n        /* \"#utility.yul\":14910:15003   */\n      tag_320\n        /* \"#utility.yul\":14999:15002   */\n      dup3\n        /* \"#utility.yul\":14910:15003   */\n      tag_153\n      jump\t// in\n    tag_320:\n        /* \"#utility.yul\":15028:15030   */\n      0x40\n        /* \"#utility.yul\":15023:15026   */\n      dup3\n        /* \"#utility.yul\":15019:15031   */\n      add\n        /* \"#utility.yul\":15012:15031   */\n      swap1\n      pop\n        /* \"#utility.yul\":14671:15037   */\n      swap2\n      swap1\n      pop\n      jump\t// out\n        /* \"#utility.yul\":15043:15462   */\n    tag_83:\n        /* \"#utility.yul\":15209:15213   */\n      0x00\n        /* \"#utility.yul\":15247:15249   */\n      0x20\n        /* \"#utility.yul\":15236:15245   */\n      dup3\n        /* \"#utility.yul\":15232:15250   */\n      add\n        /* \"#utility.yul\":15224:15250   */\n      swap1\n      pop\n        /* \"#utility.yul\":15296:15305   */\n      dup2\n        /* \"#utility.yul\":15290:15294   */\n      dup2\n        /* \"#utility.yul\":15286:15306   */\n      sub\n        /* \"#utility.yul\":15282:15283   */\n      0x00\n        /* \"#utility.yul\":15271:15280   */\n      dup4\n        /* \"#utility.yul\":15267:15284   */\n      add\n        /* \"#utility.yul\":15260:15307   */\n      mstore\n        /* \"#utility.yul\":15324:15455   */\n      tag_322\n        /* \"#utility.yul\":15450:15454   */\n      dup2\n        /* \"#utility.yul\":15324:15455   */\n      tag_154\n      jump\t// in\n    tag_322:\n        /* \"#utility.yul\":15316:15455   */\n      swap1\n      pop\n        /* \"#utility.yul\":15043:15462   */\n      swap2\n      swap1\n      pop\n      jump\t// out\n        /* \"#utility.yul\":15468:15609   */\n    tag_155:\n        /* \"#utility.yul\":15517:15521   */\n      0x00\n        /* \"#utility.yul\":15540:15543   */\n      dup2\n        /* \"#utility.yul\":15532:15543   */\n      swap1\n      pop\n        /* \"#utility.yul\":15563:15566   */\n      dup2\n        /* \"#utility.yul\":15560:15561   */\n      0x00\n        /* \"#utility.yul\":15553:15567   */\n      mstore\n        /* \"#utility.yul\":15597:15601   */\n      0x20\n        /* \"#utility.yul\":15594:15595   */\n      0x00\n        /* \"#utility.yul\":15584:15602   */\n      keccak256\n        /* \"#utility.yul\":15576:15602   */\n      swap1\n      pop\n        /* \"#utility.yul\":15468:15609   */\n      swap2\n      swap1\n      pop\n      jump\t// out\n        /* \"#utility.yul\":15615:15708   */\n    tag_156:\n        /* \"#utility.yul\":15652:15658   */\n      0x00\n        /* \"#utility.yul\":15699:15701   */\n      0x20\n        /* \"#utility.yul\":15694:15696   */\n      0x1f\n        /* \"#utility.yul\":15687:15692   */\n      dup4\n        /* \"#utility.yul\":15683:15697   */\n      add\n        /* \"#utility.yul\":15679:15702   */\n      div\n        /* \"#utility.yul\":15669:15702   */\n      swap1\n      pop\n        /* \"#utility.yul\":15615:15708   */\n      swap2\n      swap1\n      pop\n      jump\t// out\n        /* \"#utility.yul\":15714:15821   */\n    tag_157:\n        /* \"#utility.yul\":15758:15766   */\n      0x00\n        /* \"#utility.yul\":15808:15813   */\n      dup3\n        /* \"#utility.yul\":15802:15806   */\n      dup3\n        /* \"#utility.yul\":15798:15814   */\n      shl\n        /* \"#utility.yul\":15777:15814   */\n      swap1\n      pop\n        /* \"#utility.yul\":15714:15821   */\n      swap3\n      swap2\n      pop\n      pop\n      jump\t// out\n        /* \"#utility.yul\":15827:16220   */\n    tag_158:\n        /* \"#utility.yul\":15896:15902   */\n      0x00\n        /* \"#utility.yul\":15946:15947   */\n      0x08\n        /* \"#utility.yul\":15934:15944   */\n      dup4\n        /* \"#utility.yul\":15930:15948   */\n      mul\n        /* \"#utility.yul\":15969:16066   */\n      tag_327\n        /* \"#utility.yul\":15999:16065   */\n      0xffffffffffffffffffffffffffffffffffffffffffffffffffffffffffffffff\n        /* \"#utility.yul\":15988:15997   */\n      dup3\n        /* \"#utility.yul\":15969:16066   */\n      tag_157\n      jump\t// in\n    tag_327:\n        /* \"#utility.yul\":16087:16126   */\n      tag_328\n        /* \"#utility.yul\":16117:16125   */\n      dup7\n        /* \"#utility.yul\":16106:16115   */\n      dup4\n        /* \"#utility.yul\":16087:16126   */\n      tag_157\n      jump\t// in\n    tag_328:\n        /* \"#utility.yul\":16075:16126   */\n      swap6\n      pop\n        /* \"#utility.yul\":16159:16163   */\n      dup1\n        /* \"#utility.yul\":16155:16164   */\n      not\n        /* \"#utility.yul\":16148:16153   */\n      dup5\n        /* \"#utility.yul\":16144:16165   */\n      and\n        /* \"#utility.yul\":16135:16165   */\n      swap4\n      pop\n        /* \"#utility.yul\":16208:16212   */\n      dup1\n        /* \"#utility.yul\":16198:16206   */\n      dup7\n        /* \"#utility.yul\":16194:16213   */\n      and\n        /* \"#utility.yul\":16187:16192   */\n      dup5\n        /* \"#utility.yul\":16184:16214   */\n      or\n        /* \"#utility.yul\":16174:16214   */\n      swap3\n      pop\n        /* \"#utility.yul\":15903:16220   */\n      pop\n      pop\n        /* \"#utility.yul\":15827:16220   */\n      swap4\n      swap3\n      pop\n      pop\n      pop\n      jump\t// out\n        /* \"#utility.yul\":16226:16286   */\n    tag_159:\n        /* \"#utility.yul\":16254:16257   */\n      0x00\n        /* \"#utility.yul\":16275:16280   */\n      dup2\n        /* \"#utility.yul\":16268:16280   */\n      swap1\n      pop\n        /* \"#utility.yul\":16226:16286   */\n      swap2\n      swap1\n      pop\n      jump\t// out\n        /* \"#utility.yul\":16292:16434   */\n    tag_160:\n        /* \"#utility.yul\":16342:16351   */\n      0x00\n        /* \"#utility.yul\":16375:16428   */\n      tag_331\n        /* \"#utility.yul\":16393:16427   */\n      tag_332\n        /* \"#utility.yul\":16402:16426   */\n      tag_333\n        /* \"#utility.yul\":16420:16425   */\n      dup5\n        /* \"#utility.yul\":16402:16426   */\n      tag_113\n      jump\t// in\n    tag_333:\n        /* \"#utility.yul\":16393:16427   */\n      tag_159\n      jump\t// in\n    tag_332:\n        /* \"#utility.yul\":16375:16428   */\n      tag_113\n      jump\t// in\n    tag_331:\n        /* \"#utility.yul\":16362:16428   */\n      swap1\n      pop\n        /* \"#utility.yul\":16292:16434   */\n      swap2\n      swap1\n      pop\n      jump\t// out\n        /* \"#utility.yul\":16440:16515   */\n    tag_161:\n        /* \"#utility.yul\":16483:16486   */\n      0x00\n        /* \"#utility.yul\":16504:16509   */\n      dup2\n        /* \"#utility.yul\":16497:16509   */\n      swap1\n      pop\n        /* \"#utility.yul\":16440:16515   */\n      swap2\n      swap1\n      pop\n      jump\t// out\n        /* \"#utility.yul\":16521:16790   */\n    tag_162:\n        /* \"#utility.yul\":16631:16670   */\n      tag_336\n        /* \"#utility.yul\":16662:16669   */\n      dup4\n        /* \"#utility.yul\":16631:16670   */\n      tag_160\n      jump\t// in\n    tag_336:\n        /* \"#utility.yul\":16692:16783   */\n      tag_337\n        /* \"#utility.yul\":16741:16782   */\n      tag_338\n        /* \"#utility.yul\":16765:16781   */\n      dup3\n        /* \"#utility.yul\":16741:16782   */\n      tag_161\n      jump\t// in\n    tag_338:\n        /* \"#utility.yul\":16733:16739   */\n      dup5\n        /* \"#utility.yul\":16726:16730   */\n      dup5\n        /* \"#utility.yul\":16720:16731   */\n      sload\n        /* \"#utility.yul\":16692:16783   */\n      tag_158\n      jump\t// in\n    tag_337:\n        /* \"#utility.yul\":16686:16690   */\n      dup3\n        /* \"#utility.yul\":16679:16784   */\n      sstore\n        /* \"#utility.yul\":16597:16790   */\n      pop\n        /* \"#utility.yul\":16521:16790   */\n      pop\n      pop\n      pop\n      jump\t// out\n        /* \"#utility.yul\":16796:16869   */\n    tag_163:\n        /* \"#utility.yul\":16841:16844   */\n      0x00\n        /* \"#utility.yul\":16796:16869   */\n      swap1\n      jump\t// out\n        /* \"#utility.yul\":16875:17064   */\n    tag_164:\n        /* \"#utility.yul\":16952:16984   */\n      tag_341\n      tag_163\n      jump\t// in\n    tag_341:\n        /* \"#utility.yul\":16993:17058   */\n      tag_342\n        /* \"#utility.yul\":17051:17057   */\n      dup2\n        /* \"#utility.yul\":17043:17049   */\n      dup5\n        /* \"#utility.yul\":17037:17041   */\n      dup5\n        /* \"#utility.yul\":16993:17058   */\n      tag_162\n      jump\t// in\n    tag_342:\n        /* \"#utility.yul\":16928:17064   */\n      pop\n        /* \"#utility.yul\":16875:17064   */\n      pop\n      pop\n      jump\t// out\n        /* \"#utility.yul\":17070:17256   */\n    tag_165:\n        /* \"#utility.yul\":17130:17250   */\n    tag_344:\n        /* \"#utility.yul\":17147:17150   */\n      dup2\n        /* \"#utility.yul\":17140:17145   */\n      dup2\n        /* \"#utility.yul\":17137:17151   */\n      lt\n        /* \"#utility.yul\":17130:17250   */\n      iszero\n      tag_346\n      jumpi\n        /* \"#utility.yul\":17201:17240   */\n      tag_347\n        /* \"#utility.yul\":17238:17239   */\n      0x00\n        /* \"#utility.yul\":17231:17236   */\n      dup3\n        /* \"#utility.yul\":17201:17240   */\n      tag_164\n      jump\t// in\n    tag_347:\n        /* \"#utility.yul\":17174:17175   */\n      0x01\n        /* \"#utility.yul\":17167:17172   */\n      dup2\n        /* \"#utility.yul\":17163:17176   */\n      add\n        /* \"#utility.yul\":17154:17176   */\n      swap1\n      pop\n        /* \"#utility.yul\":17130:17250   */\n      jump(tag_344)\n    tag_346:\n        /* \"#utility.yul\":17070:17256   */\n      pop\n      pop\n      jump\t// out\n        /* \"#utility.yul\":17262:17805   */\n    tag_166:\n        /* \"#utility.yul\":17363:17365   */\n      0x1f\n        /* \"#utility.yul\":17358:17361   */\n      dup3\n        /* \"#utility.yul\":17355:17366   */\n      gt\n        /* \"#utility.yul\":17352:17798   */\n      iszero\n      tag_349\n      jumpi\n        /* \"#utility.yul\":17397:17435   */\n      tag_350\n        /* \"#utility.yul\":17429:17434   */\n      dup2\n        /* \"#utility.yul\":17397:17435   */\n      tag_155\n      jump\t// in\n    tag_350:\n        /* \"#utility.yul\":17481:17510   */\n      tag_351\n        /* \"#utility.yul\":17499:17509   */\n      dup5\n        /* \"#utility.yul\":17481:17510   */\n      tag_156\n      jump\t// in\n    tag_351:\n        /* \"#utility.yul\":17471:17479   */\n      dup2\n        /* \"#utility.yul\":17467:17511   */\n      add\n        /* \"#utility.yul\":17664:17666   */\n      0x20\n        /* \"#utility.yul\":17652:17662   */\n      dup6\n        /* \"#utility.yul\":17649:17667   */\n      lt\n        /* \"#utility.yul\":17646:17695   */\n      iszero\n      tag_352\n      jumpi\n        /* \"#utility.yul\":17685:17693   */\n      dup2\n        /* \"#utility.yul\":17670:17693   */\n      swap1\n      pop\n        /* \"#utility.yul\":17646:17695   */\n    tag_352:\n        /* \"#utility.yul\":17708:17788   */\n      tag_353\n        /* \"#utility.yul\":17764:17786   */\n      tag_354\n        /* \"#utility.yul\":17782:17785   */\n      dup6\n        /* \"#utility.yul\":17764:17786   */\n      tag_156\n      jump\t// in\n    tag_354:\n        /* \"#utility.yul\":17754:17762   */\n      dup4\n        /* \"#utility.yul\":17750:17787   */\n      add\n        /* \"#utility.yul\":17737:17748   */\n      dup3\n        /* \"#utility.yul\":17708:17788   */\n      tag_165\n      jump\t// in\n    tag_353:\n        /* \"#utility.yul\":17367:17798   */\n      pop\n      pop\n        /* \"#utility.yul\":17352:17798   */\n    tag_349:\n        /* \"#utility.yul\":17262:17805   */\n      pop\n      pop\n      pop\n      jump\t// out\n        /* \"#utility.yul\":17811:17928   */\n    tag_167:\n        /* \"#utility.yul\":17865:17873   */\n      0x00\n        /* \"#utility.yul\":17915:17920   */\n      dup3\n        /* \"#utility.yul\":17909:17913   */\n      dup3\n        /* \"#utility.yul\":17905:17921   */\n      shr\n        /* \"#utility.yul\":17884:17921   */\n      swap1\n      pop\n        /* \"#utility.yul\":17811:17928   */\n      swap3\n      swap2\n      pop\n      pop\n      jump\t// out\n        /* \"#utility.yul\":17934:18103   */\n    tag_168:\n        /* \"#utility.yul\":17978:17984   */\n      0x00\n        /* \"#utility.yul\":18011:18062   */\n      tag_357\n        /* \"#utility.yul\":18059:18060   */\n      0x00\n        /* \"#utility.yul\":18055:18061   */\n      not\n        /* \"#utility.yul\":18047:18052   */\n      dup5\n        /* \"#utility.yul\":18044:18045   */\n      0x08\n        /* \"#utility.yul\":18040:18053   */\n      mul\n        /* \"#utility.yul\":18011:18062   */\n      tag_167\n      jump\t// in\n    tag_357:\n        /* \"#utility.yul\":18007:18063   */\n      not\n        /* \"#utility.yul\":18092:18096   */\n      dup1\n        /* \"#utility.yul\":18086:18090   */\n      dup4\n        /* \"#utility.yul\":18082:18097   */\n      and\n        /* \"#utility.yul\":18072:18097   */\n      swap2\n      pop\n        /* \"#utility.yul\":17985:18103   */\n      pop\n        /* \"#utility.yul\":17934:18103   */\n      swap3\n      swap2\n      pop\n      pop\n      jump\t// out\n        /* \"#utility.yul\":18108:18403   */\n    tag_169:\n        /* \"#utility.yul\":18184:18188   */\n      0x00\n        /* \"#utility.yul\":18330:18359   */\n      tag_359\n        /* \"#utility.yul\":18355:18358   */\n      dup4\n        /* \"#utility.yul\":18349:18353   */\n      dup4\n        /* \"#utility.yul\":18330:18359   */\n      tag_168\n      jump\t// in\n    tag_359:\n        /* \"#utility.yul\":18322:18359   */\n      swap2\n      pop\n        /* \"#utility.yul\":18392:18395   */\n      dup3\n        /* \"#utility.yul\":18389:18390   */\n      0x02\n        /* \"#utility.yul\":18385:18396   */\n      mul\n        /* \"#utility.yul\":18379:18383   */\n      dup3\n        /* \"#utility.yul\":18376:18397   */\n      or\n        /* \"#utility.yul\":18368:18397   */\n      swap1\n      pop\n        /* \"#utility.yul\":18108:18403   */\n      swap3\n      swap2\n      pop\n      pop\n      jump\t// out\n        /* \"#utility.yul\":18408:19803   */\n    tag_85:\n        /* \"#utility.yul\":18525:18562   */\n      tag_361\n        /* \"#utility.yul\":18558:18561   */\n      dup3\n        /* \"#utility.yul\":18525:18562   */\n      tag_122\n      jump\t// in\n    tag_361:\n        /* \"#utility.yul\":18627:18645   */\n      0xffffffffffffffff\n        /* \"#utility.yul\":18619:18625   */\n      dup2\n        /* \"#utility.yul\":18616:18646   */\n      gt\n        /* \"#utility.yul\":18613:18669   */\n      iszero\n      tag_362\n      jumpi\n        /* \"#utility.yul\":18649:18667   */\n      tag_363\n      tag_136\n      jump\t// in\n    tag_363:\n        /* \"#utility.yul\":18613:18669   */\n    tag_362:\n        /* \"#utility.yul\":18693:18731   */\n      tag_364\n        /* \"#utility.yul\":18725:18729   */\n      dup3\n        /* \"#utility.yul\":18719:18730   */\n      sload\n        /* \"#utility.yul\":18693:18731   */\n      tag_54\n      jump\t// in\n    tag_364:\n        /* \"#utility.yul\":18778:18845   */\n      tag_365\n        /* \"#utility.yul\":18838:18844   */\n      dup3\n        /* \"#utility.yul\":18830:18836   */\n      dup3\n        /* \"#utility.yul\":18824:18828   */\n      dup6\n        /* \"#utility.yul\":18778:18845   */\n      tag_166\n      jump\t// in\n    tag_365:\n        /* \"#utility.yul\":18872:18873   */\n      0x00\n        /* \"#utility.yul\":18896:18900   */\n      0x20\n        /* \"#utility.yul\":18883:18900   */\n      swap1\n      pop\n        /* \"#utility.yul\":18928:18930   */\n      0x1f\n        /* \"#utility.yul\":18920:18926   */\n      dup4\n        /* \"#utility.yul\":18917:18931   */\n      gt\n        /* \"#utility.yul\":18945:18946   */\n      0x01\n        /* \"#utility.yul\":18940:19558   */\n      dup2\n      eq\n      tag_367\n      jumpi\n        /* \"#utility.yul\":19602:19603   */\n      0x00\n        /* \"#utility.yul\":19619:19625   */\n      dup5\n        /* \"#utility.yul\":19616:19693   */\n      iszero\n      tag_368\n      jumpi\n        /* \"#utility.yul\":19668:19677   */\n      dup3\n        /* \"#utility.yul\":19663:19666   */\n      dup8\n        /* \"#utility.yul\":19659:19678   */\n      add\n        /* \"#utility.yul\":19653:19679   */\n      mload\n        /* \"#utility.yul\":19644:19679   */\n      swap1\n      pop\n        /* \"#utility.yul\":19616:19693   */\n    tag_368:\n        /* \"#utility.yul\":19719:19786   */\n      tag_369\n        /* \"#utility.yul\":19779:19785   */\n      dup6\n        /* \"#utility.yul\":19772:19777   */\n      dup3\n        /* \"#utility.yul\":19719:19786   */\n      tag_169\n      jump\t// in\n    tag_369:\n        /* \"#utility.yul\":19713:19717   */\n      dup7\n        /* \"#utility.yul\":19706:19787   */\n      sstore\n        /* \"#utility.yul\":19575:19797   */\n      pop\n        /* \"#utility.yul\":18910:19797   */\n      jump(tag_366)\n        /* \"#utility.yul\":18940:19558   */\n    tag_367:\n        /* \"#utility.yul\":18992:18996   */\n      0x1f\n        /* \"#utility.yul\":18988:18997   */\n      not\n        /* \"#utility.yul\":18980:18986   */\n      dup5\n        /* \"#utility.yul\":18976:18998   */\n      and\n        /* \"#utility.yul\":19026:19063   */\n      tag_370\n        /* \"#utility.yul\":19058:19062   */\n      dup7\n        /* \"#utility.yul\":19026:19063   */\n      tag_155\n      jump\t// in\n    tag_370:\n        /* \"#utility.yul\":19085:19086   */\n      0x00\n        /* \"#utility.yul\":19099:19307   */\n    tag_371:\n        /* \"#utility.yul\":19113:19120   */\n      dup3\n        /* \"#utility.yul\":19110:19111   */\n      dup2\n        /* \"#utility.yul\":19107:19121   */\n      lt\n        /* \"#utility.yul\":19099:19307   */\n      iszero\n      tag_373\n      jumpi\n        /* \"#utility.yul\":19192:19201   */\n      dup5\n        /* \"#utility.yul\":19187:19190   */\n      dup10\n        /* \"#utility.yul\":19183:19202   */\n      add\n        /* \"#utility.yul\":19177:19203   */\n      mload\n        /* \"#utility.yul\":19169:19175   */\n      dup3\n        /* \"#utility.yul\":19162:19204   */\n      sstore\n        /* \"#utility.yul\":19243:19244   */\n      0x01\n        /* \"#utility.yul\":19235:19241   */\n      dup3\n        /* \"#utility.yul\":19231:19245   */\n      add\n        /* \"#utility.yul\":19221:19245   */\n      swap2\n      pop\n        /* \"#utility.yul\":19290:19292   */\n      0x20\n        /* \"#utility.yul\":19279:19288   */\n      dup6\n        /* \"#utility.yul\":19275:19293   */\n      add\n        /* \"#utility.yul\":19262:19293   */\n      swap5\n      pop\n        /* \"#utility.yul\":19136:19140   */\n      0x20\n        /* \"#utility.yul\":19133:19134   */\n      dup2\n        /* \"#utility.yul\":19129:19141   */\n      add\n        /* \"#utility.yul\":19124:19141   */\n      swap1\n      pop\n        /* \"#utility.yul\":19099:19307   */\n      jump(tag_371)\n    tag_373:\n        /* \"#utility.yul\":19335:19341   */\n      dup7\n        /* \"#utility.yul\":19326:19333   */\n      dup4\n        /* \"#utility.yul\":19323:19342   */\n      lt\n        /* \"#utility.yul\":19320:19499   */\n      iszero\n      tag_374\n      jumpi\n        /* \"#utility.yul\":19393:19402   */\n      dup5\n        /* \"#utility.yul\":19388:19391   */\n      dup10\n        /* \"#utility.yul\":19384:19403   */\n      add\n        /* \"#utility.yul\":19378:19404   */\n      mload\n        /* \"#utility.yul\":19436:19484   */\n      tag_375\n        /* \"#utility.yul\":19478:19482   */\n      0x1f\n        /* \"#utility.yul\":19470:19476   */\n      dup10\n        /* \"#utility.yul\":19466:19483   */\n      and\n        /* \"#utility.yul\":19455:19464   */\n      dup3\n        /* \"#utility.yul\":19436:19484   */\n      tag_168\n      jump\t// in\n    tag_375:\n        /* \"#utility.yul\":19428:19434   */\n      dup4\n        /* \"#utility.yul\":19421:19485   */\n      sstore\n        /* \"#utility.yul\":19343:19499   */\n      pop\n        /* \"#utility.yul\":19320:19499   */\n    tag_374:\n        /* \"#utility.yul\":19545:19546   */\n      0x01\n        /* \"#utility.yul\":19541:19542   */\n      0x02\n        /* \"#utility.yul\":19533:19539   */\n      dup9\n        /* \"#utility.yul\":19529:19543   */\n      mul\n        /* \"#utility.yul\":19525:19547   */\n      add\n        /* \"#utility.yul\":19519:19523   */\n      dup9\n        /* \"#utility.yul\":19512:19548   */\n      sstore\n        /* \"#utility.yul\":18947:19558   */\n      pop\n      pop\n      pop\n        /* \"#utility.yul\":18910:19797   */\n    tag_366:\n      pop\n        /* \"#utility.yul\":18500:19803   */\n      pop\n      pop\n      pop\n        /* \"#utility.yul\":18408:19803   */\n      pop\n      pop\n      jump\t// out\n        /* \"#utility.yul\":19809:19989   */\n    tag_170:\n        /* \"#utility.yul\":19857:19934   */\n      0x4e487b7100000000000000000000000000000000000000000000000000000000\n        /* \"#utility.yul\":19854:19855   */\n      0x00\n        /* \"#utility.yul\":19847:19935   */\n      mstore\n        /* \"#utility.yul\":19954:19958   */\n      0x11\n        /* \"#utility.yul\":19951:19952   */\n      0x04\n        /* \"#utility.yul\":19944:19959   */\n      mstore\n        /* \"#utility.yul\":19978:19982   */\n      0x24\n        /* \"#utility.yul\":19975:19976   */\n      0x00\n        /* \"#utility.yul\":19968:19983   */\n      revert\n        /* \"#utility.yul\":19995:20189   */\n    tag_88:\n        /* \"#utility.yul\":20035:20039   */\n      0x00\n        /* \"#utility.yul\":20055:20075   */\n      tag_378\n        /* \"#utility.yul\":20073:20074   */\n      dup3\n        /* \"#utility.yul\":20055:20075   */\n      tag_113\n      jump\t// in\n    tag_378:\n        /* \"#utility.yul\":20050:20075   */\n      swap2\n      pop\n        /* \"#utility.yul\":20089:20109   */\n      tag_379\n        /* \"#utility.yul\":20107:20108   */\n      dup4\n        /* \"#utility.yul\":20089:20109   */\n      tag_113\n      jump\t// in\n    tag_379:\n        /* \"#utility.yul\":20084:20109   */\n      swap3\n      pop\n        /* \"#utility.yul\":20133:20134   */\n      dup3\n        /* \"#utility.yul\":20130:20131   */\n      dup3\n        /* \"#utility.yul\":20126:20135   */\n      sub\n        /* \"#utility.yul\":20118:20135   */\n      swap1\n      pop\n        /* \"#utility.yul\":20157:20158   */\n      dup2\n        /* \"#utility.yul\":20151:20155   */\n      dup2\n        /* \"#utility.yul\":20148:20159   */\n      gt\n        /* \"#utility.yul\":20145:20182   */\n      iszero\n      tag_380\n      jumpi\n        /* \"#utility.yul\":20162:20180   */\n      tag_381\n      tag_170\n      jump\t// in\n    tag_381:\n        /* \"#utility.yul\":20145:20182   */\n    tag_380:\n        /* \"#utility.yul\":19995:20189   */\n      swap3\n      swap2\n      pop\n      pop\n      jump\t// out\n        /* \"#utility.yul\":20195:20428   */\n    tag_107:\n        /* \"#utility.yul\":20234:20237   */\n      0x00\n        /* \"#utility.yul\":20257:20281   */\n      tag_383\n        /* \"#utility.yul\":20275:20280   */\n      dup3\n        /* \"#utility.yul\":20257:20281   */\n      tag_113\n      jump\t// in\n    tag_383:\n        /* \"#utility.yul\":20248:20281   */\n      swap2\n      pop\n        /* \"#utility.yul\":20303:20369   */\n      0xffffffffffffffffffffffffffffffffffffffffffffffffffffffffffffffff\n        /* \"#utility.yul\":20296:20301   */\n      dup3\n        /* \"#utility.yul\":20293:20370   */\n      sub\n        /* \"#utility.yul\":20290:20393   */\n      tag_384\n      jumpi\n        /* \"#utility.yul\":20373:20391   */\n      tag_385\n      tag_170\n      jump\t// in\n    tag_385:\n        /* \"#utility.yul\":20290:20393   */\n    tag_384:\n        /* \"#utility.yul\":20420:20421   */\n      0x01\n        /* \"#utility.yul\":20413:20418   */\n      dup3\n        /* \"#utility.yul\":20409:20422   */\n      add\n        /* \"#utility.yul\":20402:20422   */\n      swap1\n      pop\n        /* \"#utility.yul\":20195:20428   */\n      swap2\n      swap1\n      pop\n      jump\t// out\n\n    auxdata: 0xa2646970667358221220a3a3c542bd86d1a5ff4b00bd8b16d69cd50ac550a93a73e410165b21a29badcc64736f6c63430008160033\n}\n",
				"bytecode": {
					"linkReferences": {},
					"object": "608060405234801561000f575f80fd5b50600180819055506114b1806100245f395ff3fe608060405234801561000f575f80fd5b5060043610610086575f3560e01c80636a868974116100595780636a8689741461010e5780637749cf231461012c578063bfb231d21461014a578063fb54453b1461017e57610086565b806329507f731461008a5780633129e773146100a65780633a1b3d31146100d65780634ec0c9e9146100f2575b5f80fd5b6100a4600480360381019061009f9190610a15565b61019a565b005b6100c060048036038101906100bb9190610a53565b61028f565b6040516100cd9190610c13565b60405180910390f35b6100f060048036038101906100eb9190610c56565b610471565b005b61010c60048036038101906101079190610dc0565b61057d565b005b610116610642565b6040516101239190610e29565b60405180910390f35b610134610648565b6040516101419190610e29565b60405180910390f35b610164600480360381019061015f9190610a53565b61065c565b604051610175959493929190610ea8565b60405180910390f35b61019860048036038101906101939190610f07565b6107c4565b005b3373ffffffffffffffffffffffffffffffffffffffff165f808481526020019081526020015f206001015f9054906101000a900473ffffffffffffffffffffffffffffffffffffffff1673ffffffffffffffffffffffffffffffffffffffff161461023a576040517f08c379a000000000000000000000000000000000000000000000000000000000815260040161023190610fd1565b60405180910390fd5b805f808481526020019081526020015f206001015f6101000a81548173ffffffffffffffffffffffffffffffffffffffff021916908373ffffffffffffffffffffffffffffffffffffffff1602179055505050565b610297610923565b5f808381526020019081526020015f206040518060a00160405290815f8201548152602001600182015f9054906101000a900473ffffffffffffffffffffffffffffffffffffffff1673ffffffffffffffffffffffffffffffffffffffff1673ffffffffffffffffffffffffffffffffffffffff1681526020016002820180546103209061101c565b80601f016020809104026020016040519081016040528092919081815260200182805461034c9061101c565b80156103975780601f1061036e57610100808354040283529160200191610397565b820191905f5260205f20905b81548152906001019060200180831161037a57829003601f168201915b505050505081526020016003820180546103b09061101c565b80601f01602080910402602001604051908101604052809291908181526020018280546103dc9061101c565b80156104275780601f106103fe57610100808354040283529160200191610427565b820191905f5260205f20905b81548152906001019060200180831161040a57829003601f168201915b50505050508152602001600482015f9054906101000a900460ff16600281111561045457610453610b26565b5b600281111561046657610465610b26565b5b815250509050919050565b3373ffffffffffffffffffffffffffffffffffffffff165f808481526020019081526020015f206001015f9054906101000a900473ffffffffffffffffffffffffffffffffffffffff1673ffffffffffffffffffffffffffffffffffffffff16148061050057506002808111156104eb576104ea610b26565b5b8160028111156104fe576104fd610b26565b5b145b61053f576040517f08c379a0000000000000000000000000000000000000000000000000000000008152600401610536906110bc565b60405180910390fd5b805f808481526020019081526020015f206004015f6101000a81548160ff0219169083600281111561057457610573610b26565b5b02179055505050565b3373ffffffffffffffffffffffffffffffffffffffff165f808481526020019081526020015f206001015f9054906101000a900473ffffffffffffffffffffffffffffffffffffffff1673ffffffffffffffffffffffffffffffffffffffff161461061d576040517f08c379a00000000000000000000000000000000000000000000000000000000081526004016106149061114a565b60405180910390fd5b805f808481526020019081526020015f20600301908161063d9190611305565b505050565b60015481565b5f600180546106579190611401565b905090565b5f602052805f5260405f205f91509050805f015490806001015f9054906101000a900473ffffffffffffffffffffffffffffffffffffffff16908060020180546106a59061101c565b80601f01602080910402602001604051908101604052809291908181526020018280546106d19061101c565b801561071c5780601f106106f35761010080835404028352916020019161071c565b820191905f5260205f20905b8154815290600101906020018083116106ff57829003601f168201915b5050505050908060030180546107319061101c565b80601f016020809104026020016040519081016040528092919081815260200182805461075d9061101c565b80156107a85780601f1061077f576101008083540402835291602001916107a8565b820191905f5260205f20905b81548152906001019060200180831161078b57829003601f168201915b505050505090806004015f9054906101000a900460ff16905085565b6040518060a0016040528060015481526020018273ffffffffffffffffffffffffffffffffffffffff1681526020018381526020016040518060400160405280600681526020017f536f75726365000000000000000000000000000000000000000000000000000081525081526020015f600281111561084757610846610b26565b5b8152505f8060015481526020019081526020015f205f820151815f01556020820151816001015f6101000a81548173ffffffffffffffffffffffffffffffffffffffff021916908373ffffffffffffffffffffffffffffffffffffffff16021790555060408201518160020190816108bf9190611305565b5060608201518160030190816108d59190611305565b506080820151816004015f6101000a81548160ff02191690836002811115610900576108ff610b26565b5b021790555090505060015f81548092919061091a90611434565b91905055505050565b6040518060a001604052805f81526020015f73ffffffffffffffffffffffffffffffffffffffff16815260200160608152602001606081526020015f600281111561097157610970610b26565b5b81525090565b5f604051905090565b5f80fd5b5f80fd5b5f819050919050565b61099a81610988565b81146109a4575f80fd5b50565b5f813590506109b581610991565b92915050565b5f73ffffffffffffffffffffffffffffffffffffffff82169050919050565b5f6109e4826109bb565b9050919050565b6109f4816109da565b81146109fe575f80fd5b50565b5f81359050610a0f816109eb565b92915050565b5f8060408385031215610a2b57610a2a610980565b5b5f610a38858286016109a7565b9250506020610a4985828601610a01565b9150509250929050565b5f60208284031215610a6857610a67610980565b5b5f610a75848285016109a7565b91505092915050565b610a8781610988565b82525050565b610a96816109da565b82525050565b5f81519050919050565b5f82825260208201905092915050565b5f5b83811015610ad3578082015181840152602081019050610ab8565b5f8484015250505050565b5f601f19601f8301169050919050565b5f610af882610a9c565b610b028185610aa6565b9350610b12818560208601610ab6565b610b1b81610ade565b840191505092915050565b7f4e487b71000000000000000000000000000000000000000000000000000000005f52602160045260245ffd5b60038110610b6457610b63610b26565b5b50565b5f819050610b7482610b53565b919050565b5f610b8382610b67565b9050919050565b610b9381610b79565b82525050565b5f60a083015f830151610bae5f860182610a7e565b506020830151610bc16020860182610a8d565b5060408301518482036040860152610bd98282610aee565b91505060608301518482036060860152610bf38282610aee565b9150506080830151610c086080860182610b8a565b508091505092915050565b5f6020820190508181035f830152610c2b8184610b99565b905092915050565b60038110610c3f575f80fd5b50565b5f81359050610c5081610c33565b92915050565b5f8060408385031215610c6c57610c6b610980565b5b5f610c79858286016109a7565b9250506020610c8a85828601610c42565b9150509250929050565b5f80fd5b5f80fd5b7f4e487b71000000000000000000000000000000000000000000000000000000005f52604160045260245ffd5b610cd282610ade565b810181811067ffffffffffffffff82111715610cf157610cf0610c9c565b5b80604052505050565b5f610d03610977565b9050610d0f8282610cc9565b919050565b5f67ffffffffffffffff821115610d2e57610d2d610c9c565b5b610d3782610ade565b9050602081019050919050565b828183375f83830152505050565b5f610d64610d5f84610d14565b610cfa565b905082815260208101848484011115610d8057610d7f610c98565b5b610d8b848285610d44565b509392505050565b5f82601f830112610da757610da6610c94565b5b8135610db7848260208601610d52565b91505092915050565b5f8060408385031215610dd657610dd5610980565b5b5f610de3858286016109a7565b925050602083013567ffffffffffffffff811115610e0457610e03610984565b5b610e1085828601610d93565b9150509250929050565b610e2381610988565b82525050565b5f602082019050610e3c5f830184610e1a565b92915050565b610e4b816109da565b82525050565b5f82825260208201905092915050565b5f610e6b82610a9c565b610e758185610e51565b9350610e85818560208601610ab6565b610e8e81610ade565b840191505092915050565b610ea281610b79565b82525050565b5f60a082019050610ebb5f830188610e1a565b610ec86020830187610e42565b8181036040830152610eda8186610e61565b90508181036060830152610eee8185610e61565b9050610efd6080830184610e99565b9695505050505050565b5f8060408385031215610f1d57610f1c610980565b5b5f83013567ffffffffffffffff811115610f3a57610f39610984565b5b610f4685828601610d93565b9250506020610f5785828601610a01565b9150509250929050565b7f4f6e6c7920746865206f776e65722063616e207472616e73666572206f776e655f8201527f7273686970000000000000000000000000000000000000000000000000000000602082015250565b5f610fbb602583610e51565b9150610fc682610f61565b604082019050919050565b5f6020820190508181035f830152610fe881610faf565b9050919050565b7f4e487b71000000000000000000000000000000000000000000000000000000005f52602260045260245ffd5b5f600282049050600182168061103357607f821691505b60208210810361104657611045610fef565b5b50919050565b7f4f6e6c7920746865206f776e6572206f722064656c6976657279206167656e745f8201527f2063616e206368616e67652073746174757320746f2044454c49564552454400602082015250565b5f6110a6603f83610e51565b91506110b18261104c565b604082019050919050565b5f6020820190508181035f8301526110d38161109a565b9050919050565b7f4f6e6c7920746865206f776e65722063616e20757064617465206c6f636174695f8201527f6f6e000000000000000000000000000000000000000000000000000000000000602082015250565b5f611134602283610e51565b915061113f826110da565b604082019050919050565b5f6020820190508181035f83015261116181611128565b9050919050565b5f819050815f5260205f209050919050565b5f6020601f8301049050919050565b5f82821b905092915050565b5f600883026111c47fffffffffffffffffffffffffffffffffffffffffffffffffffffffffffffffff82611189565b6111ce8683611189565b95508019841693508086168417925050509392505050565b5f819050919050565b5f6112096112046111ff84610988565b6111e6565b610988565b9050919050565b5f819050919050565b611222836111ef565b61123661122e82611210565b848454611195565b825550505050565b5f90565b61124a61123e565b611255818484611219565b505050565b5b818110156112785761126d5f82611242565b60018101905061125b565b5050565b601f8211156112bd5761128e81611168565b6112978461117a565b810160208510156112a6578190505b6112ba6112b28561117a565b83018261125a565b50505b505050565b5f82821c905092915050565b5f6112dd5f19846008026112c2565b1980831691505092915050565b5f6112f583836112ce565b9150826002028217905092915050565b61130e82610a9c565b67ffffffffffffffff81111561132757611326610c9c565b5b611331825461101c565b61133c82828561127c565b5f60209050601f83116001811461136d575f841561135b578287015190505b61136585826112ea565b8655506113cc565b601f19841661137b86611168565b5f5b828110156113a25784890151825560018201915060208501945060208101905061137d565b868310156113bf57848901516113bb601f8916826112ce565b8355505b6001600288020188555050505b505050505050565b7f4e487b71000000000000000000000000000000000000000000000000000000005f52601160045260245ffd5b5f61140b82610988565b915061141683610988565b925082820390508181111561142e5761142d6113d4565b5b92915050565b5f61143e82610988565b91507fffffffffffffffffffffffffffffffffffffffffffffffffffffffffffffffff82036114705761146f6113d4565b5b60018201905091905056fea2646970667358221220a3a3c542bd86d1a5ff4b00bd8b16d69cd50ac550a93a73e410165b21a29badcc64736f6c63430008160033",
					"opcodes": "PUSH1 0x80 PUSH1 0x40 MSTORE CALLVALUE DUP1 ISZERO PUSH2 0xF JUMPI PUSH0 DUP1 REVERT JUMPDEST POP PUSH1 0x1 DUP1 DUP2 SWAP1 SSTORE POP PUSH2 0x14B1 DUP1 PUSH2 0x24 PUSH0 CODECOPY PUSH0 RETURN INVALID PUSH1 0x80 PUSH1 0x40 MSTORE CALLVALUE DUP1 ISZERO PUSH2 0xF JUMPI PUSH0 DUP1 REVERT JUMPDEST POP PUSH1 0x4 CALLDATASIZE LT PUSH2 0x86 JUMPI PUSH0 CALLDATALOAD PUSH1 0xE0 SHR DUP1 PUSH4 0x6A868974 GT PUSH2 0x59 JUMPI DUP1 PUSH4 0x6A868974 EQ PUSH2 0x10E JUMPI DUP1 PUSH4 0x7749CF23 EQ PUSH2 0x12C JUMPI DUP1 PUSH4 0xBFB231D2 EQ PUSH2 0x14A JUMPI DUP1 PUSH4 0xFB54453B EQ PUSH2 0x17E JUMPI PUSH2 0x86 JUMP JUMPDEST DUP1 PUSH4 0x29507F73 EQ PUSH2 0x8A JUMPI DUP1 PUSH4 0x3129E773 EQ PUSH2 0xA6 JUMPI DUP1 PUSH4 0x3A1B3D31 EQ PUSH2 0xD6 JUMPI DUP1 PUSH4 0x4EC0C9E9 EQ PUSH2 0xF2 JUMPI JUMPDEST PUSH0 DUP1 REVERT JUMPDEST PUSH2 0xA4 PUSH1 0x4 DUP1 CALLDATASIZE SUB DUP2 ADD SWAP1 PUSH2 0x9F SWAP2 SWAP1 PUSH2 0xA15 JUMP JUMPDEST PUSH2 0x19A JUMP JUMPDEST STOP JUMPDEST PUSH2 0xC0 PUSH1 0x4 DUP1 CALLDATASIZE SUB DUP2 ADD SWAP1 PUSH2 0xBB SWAP2 SWAP1 PUSH2 0xA53 JUMP JUMPDEST PUSH2 0x28F JUMP JUMPDEST PUSH1 0x40 MLOAD PUSH2 0xCD SWAP2 SWAP1 PUSH2 0xC13 JUMP JUMPDEST PUSH1 0x40 MLOAD DUP1 SWAP2 SUB SWAP1 RETURN JUMPDEST PUSH2 0xF0 PUSH1 0x4 DUP1 CALLDATASIZE SUB DUP2 ADD SWAP1 PUSH2 0xEB SWAP2 SWAP1 PUSH2 0xC56 JUMP JUMPDEST PUSH2 0x471 JUMP JUMPDEST STOP JUMPDEST PUSH2 0x10C PUSH1 0x4 DUP1 CALLDATASIZE SUB DUP2 ADD SWAP1 PUSH2 0x107 SWAP2 SWAP1 PUSH2 0xDC0 JUMP JUMPDEST PUSH2 0x57D JUMP JUMPDEST STOP JUMPDEST PUSH2 0x116 PUSH2 0x642 JUMP JUMPDEST PUSH1 0x40 MLOAD PUSH2 0x123 SWAP2 SWAP1 PUSH2 0xE29 JUMP JUMPDEST PUSH1 0x40 MLOAD DUP1 SWAP2 SUB SWAP1 RETURN JUMPDEST PUSH2 0x134 PUSH2 0x648 JUMP JUMPDEST PUSH1 0x40 MLOAD PUSH2 0x141 SWAP2 SWAP1 PUSH2 0xE29 JUMP JUMPDEST PUSH1 0x40 MLOAD DUP1 SWAP2 SUB SWAP1 RETURN JUMPDEST PUSH2 0x164 PUSH1 0x4 DUP1 CALLDATASIZE SUB DUP2 ADD SWAP1 PUSH2 0x15F SWAP2 SWAP1 PUSH2 0xA53 JUMP JUMPDEST PUSH2 0x65C JUMP JUMPDEST PUSH1 0x40 MLOAD PUSH2 0x175 SWAP6 SWAP5 SWAP4 SWAP3 SWAP2 SWAP1 PUSH2 0xEA8 JUMP JUMPDEST PUSH1 0x40 MLOAD DUP1 SWAP2 SUB SWAP1 RETURN JUMPDEST PUSH2 0x198 PUSH1 0x4 DUP1 CALLDATASIZE SUB DUP2 ADD SWAP1 PUSH2 0x193 SWAP2 SWAP1 PUSH2 0xF07 JUMP JUMPDEST PUSH2 0x7C4 JUMP JUMPDEST STOP JUMPDEST CALLER PUSH20 0xFFFFFFFFFFFFFFFFFFFFFFFFFFFFFFFFFFFFFFFF AND PUSH0 DUP1 DUP5 DUP2 MSTORE PUSH1 0x20 ADD SWAP1 DUP2 MSTORE PUSH1 0x20 ADD PUSH0 KECCAK256 PUSH1 0x1 ADD PUSH0 SWAP1 SLOAD SWAP1 PUSH2 0x100 EXP SWAP1 DIV PUSH20 0xFFFFFFFFFFFFFFFFFFFFFFFFFFFFFFFFFFFFFFFF AND PUSH20 0xFFFFFFFFFFFFFFFFFFFFFFFFFFFFFFFFFFFFFFFF AND EQ PUSH2 0x23A JUMPI PUSH1 0x40 MLOAD PUSH32 0x8C379A000000000000000000000000000000000000000000000000000000000 DUP2 MSTORE PUSH1 0x4 ADD PUSH2 0x231 SWAP1 PUSH2 0xFD1 JUMP JUMPDEST PUSH1 0x40 MLOAD DUP1 SWAP2 SUB SWAP1 REVERT JUMPDEST DUP1 PUSH0 DUP1 DUP5 DUP2 MSTORE PUSH1 0x20 ADD SWAP1 DUP2 MSTORE PUSH1 0x20 ADD PUSH0 KECCAK256 PUSH1 0x1 ADD PUSH0 PUSH2 0x100 EXP DUP2 SLOAD DUP2 PUSH20 0xFFFFFFFFFFFFFFFFFFFFFFFFFFFFFFFFFFFFFFFF MUL NOT AND SWAP1 DUP4 PUSH20 0xFFFFFFFFFFFFFFFFFFFFFFFFFFFFFFFFFFFFFFFF AND MUL OR SWAP1 SSTORE POP POP POP JUMP JUMPDEST PUSH2 0x297 PUSH2 0x923 JUMP JUMPDEST PUSH0 DUP1 DUP4 DUP2 MSTORE PUSH1 0x20 ADD SWAP1 DUP2 MSTORE PUSH1 0x20 ADD PUSH0 KECCAK256 PUSH1 0x40 MLOAD DUP1 PUSH1 0xA0 ADD PUSH1 0x40 MSTORE SWAP1 DUP2 PUSH0 DUP3 ADD SLOAD DUP2 MSTORE PUSH1 0x20 ADD PUSH1 0x1 DUP3 ADD PUSH0 SWAP1 SLOAD SWAP1 PUSH2 0x100 EXP SWAP1 DIV PUSH20 0xFFFFFFFFFFFFFFFFFFFFFFFFFFFFFFFFFFFFFFFF AND PUSH20 0xFFFFFFFFFFFFFFFFFFFFFFFFFFFFFFFFFFFFFFFF AND PUSH20 0xFFFFFFFFFFFFFFFFFFFFFFFFFFFFFFFFFFFFFFFF AND DUP2 MSTORE PUSH1 0x20 ADD PUSH1 0x2 DUP3 ADD DUP1 SLOAD PUSH2 0x320 SWAP1 PUSH2 0x101C JUMP JUMPDEST DUP1 PUSH1 0x1F ADD PUSH1 0x20 DUP1 SWAP2 DIV MUL PUSH1 0x20 ADD PUSH1 0x40 MLOAD SWAP1 DUP2 ADD PUSH1 0x40 MSTORE DUP1 SWAP3 SWAP2 SWAP1 DUP2 DUP2 MSTORE PUSH1 0x20 ADD DUP3 DUP1 SLOAD PUSH2 0x34C SWAP1 PUSH2 0x101C JUMP JUMPDEST DUP1 ISZERO PUSH2 0x397 JUMPI DUP1 PUSH1 0x1F LT PUSH2 0x36E JUMPI PUSH2 0x100 DUP1 DUP4 SLOAD DIV MUL DUP4 MSTORE SWAP2 PUSH1 0x20 ADD SWAP2 PUSH2 0x397 JUMP JUMPDEST DUP3 ADD SWAP2 SWAP1 PUSH0 MSTORE PUSH1 0x20 PUSH0 KECCAK256 SWAP1 JUMPDEST DUP2 SLOAD DUP2 MSTORE SWAP1 PUSH1 0x1 ADD SWAP1 PUSH1 0x20 ADD DUP1 DUP4 GT PUSH2 0x37A JUMPI DUP3 SWAP1 SUB PUSH1 0x1F AND DUP3 ADD SWAP2 JUMPDEST POP POP POP POP POP DUP2 MSTORE PUSH1 0x20 ADD PUSH1 0x3 DUP3 ADD DUP1 SLOAD PUSH2 0x3B0 SWAP1 PUSH2 0x101C JUMP JUMPDEST DUP1 PUSH1 0x1F ADD PUSH1 0x20 DUP1 SWAP2 DIV MUL PUSH1 0x20 ADD PUSH1 0x40 MLOAD SWAP1 DUP2 ADD PUSH1 0x40 MSTORE DUP1 SWAP3 SWAP2 SWAP1 DUP2 DUP2 MSTORE PUSH1 0x20 ADD DUP3 DUP1 SLOAD PUSH2 0x3DC SWAP1 PUSH2 0x101C JUMP JUMPDEST DUP1 ISZERO PUSH2 0x427 JUMPI DUP1 PUSH1 0x1F LT PUSH2 0x3FE JUMPI PUSH2 0x100 DUP1 DUP4 SLOAD DIV MUL DUP4 MSTORE SWAP2 PUSH1 0x20 ADD SWAP2 PUSH2 0x427 JUMP JUMPDEST DUP3 ADD SWAP2 SWAP1 PUSH0 MSTORE PUSH1 0x20 PUSH0 KECCAK256 SWAP1 JUMPDEST DUP2 SLOAD DUP2 MSTORE SWAP1 PUSH1 0x1 ADD SWAP1 PUSH1 0x20 ADD DUP1 DUP4 GT PUSH2 0x40A JUMPI DUP3 SWAP1 SUB PUSH1 0x1F AND DUP3 ADD SWAP2 JUMPDEST POP POP POP POP POP DUP2 MSTORE PUSH1 0x20 ADD PUSH1 0x4 DUP3 ADD PUSH0 SWAP1 SLOAD SWAP1 PUSH2 0x100 EXP SWAP1 DIV PUSH1 0xFF AND PUSH1 0x2 DUP2 GT ISZERO PUSH2 0x454 JUMPI PUSH2 0x453 PUSH2 0xB26 JUMP JUMPDEST JUMPDEST PUSH1 0x2 DUP2 GT ISZERO PUSH2 0x466 JUMPI PUSH2 0x465 PUSH2 0xB26 JUMP JUMPDEST JUMPDEST DUP2 MSTORE POP POP SWAP1 POP SWAP2 SWAP1 POP JUMP JUMPDEST CALLER PUSH20 0xFFFFFFFFFFFFFFFFFFFFFFFFFFFFFFFFFFFFFFFF AND PUSH0 DUP1 DUP5 DUP2 MSTORE PUSH1 0x20 ADD SWAP1 DUP2 MSTORE PUSH1 0x20 ADD PUSH0 KECCAK256 PUSH1 0x1 ADD PUSH0 SWAP1 SLOAD SWAP1 PUSH2 0x100 EXP SWAP1 DIV PUSH20 0xFFFFFFFFFFFFFFFFFFFFFFFFFFFFFFFFFFFFFFFF AND PUSH20 0xFFFFFFFFFFFFFFFFFFFFFFFFFFFFFFFFFFFFFFFF AND EQ DUP1 PUSH2 0x500 JUMPI POP PUSH1 0x2 DUP1 DUP2 GT ISZERO PUSH2 0x4EB JUMPI PUSH2 0x4EA PUSH2 0xB26 JUMP JUMPDEST JUMPDEST DUP2 PUSH1 0x2 DUP2 GT ISZERO PUSH2 0x4FE JUMPI PUSH2 0x4FD PUSH2 0xB26 JUMP JUMPDEST JUMPDEST EQ JUMPDEST PUSH2 0x53F JUMPI PUSH1 0x40 MLOAD PUSH32 0x8C379A000000000000000000000000000000000000000000000000000000000 DUP2 MSTORE PUSH1 0x4 ADD PUSH2 0x536 SWAP1 PUSH2 0x10BC JUMP JUMPDEST PUSH1 0x40 MLOAD DUP1 SWAP2 SUB SWAP1 REVERT JUMPDEST DUP1 PUSH0 DUP1 DUP5 DUP2 MSTORE PUSH1 0x20 ADD SWAP1 DUP2 MSTORE PUSH1 0x20 ADD PUSH0 KECCAK256 PUSH1 0x4 ADD PUSH0 PUSH2 0x100 EXP DUP2 SLOAD DUP2 PUSH1 0xFF MUL NOT AND SWAP1 DUP4 PUSH1 0x2 DUP2 GT ISZERO PUSH2 0x574 JUMPI PUSH2 0x573 PUSH2 0xB26 JUMP JUMPDEST JUMPDEST MUL OR SWAP1 SSTORE POP POP POP JUMP JUMPDEST CALLER PUSH20 0xFFFFFFFFFFFFFFFFFFFFFFFFFFFFFFFFFFFFFFFF AND PUSH0 DUP1 DUP5 DUP2 MSTORE PUSH1 0x20 ADD SWAP1 DUP2 MSTORE PUSH1 0x20 ADD PUSH0 KECCAK256 PUSH1 0x1 ADD PUSH0 SWAP1 SLOAD SWAP1 PUSH2 0x100 EXP SWAP1 DIV PUSH20 0xFFFFFFFFFFFFFFFFFFFFFFFFFFFFFFFFFFFFFFFF AND PUSH20 0xFFFFFFFFFFFFFFFFFFFFFFFFFFFFFFFFFFFFFFFF AND EQ PUSH2 0x61D JUMPI PUSH1 0x40 MLOAD PUSH32 0x8C379A000000000000000000000000000000000000000000000000000000000 DUP2 MSTORE PUSH1 0x4 ADD PUSH2 0x614 SWAP1 PUSH2 0x114A JUMP JUMPDEST PUSH1 0x40 MLOAD DUP1 SWAP2 SUB SWAP1 REVERT JUMPDEST DUP1 PUSH0 DUP1 DUP5 DUP2 MSTORE PUSH1 0x20 ADD SWAP1 DUP2 MSTORE PUSH1 0x20 ADD PUSH0 KECCAK256 PUSH1 0x3 ADD SWAP1 DUP2 PUSH2 0x63D SWAP2 SWAP1 PUSH2 0x1305 JUMP JUMPDEST POP POP POP JUMP JUMPDEST PUSH1 0x1 SLOAD DUP2 JUMP JUMPDEST PUSH0 PUSH1 0x1 DUP1 SLOAD PUSH2 0x657 SWAP2 SWAP1 PUSH2 0x1401 JUMP JUMPDEST SWAP1 POP SWAP1 JUMP JUMPDEST PUSH0 PUSH1 0x20 MSTORE DUP1 PUSH0 MSTORE PUSH1 0x40 PUSH0 KECCAK256 PUSH0 SWAP2 POP SWAP1 POP DUP1 PUSH0 ADD SLOAD SWAP1 DUP1 PUSH1 0x1 ADD PUSH0 SWAP1 SLOAD SWAP1 PUSH2 0x100 EXP SWAP1 DIV PUSH20 0xFFFFFFFFFFFFFFFFFFFFFFFFFFFFFFFFFFFFFFFF AND SWAP1 DUP1 PUSH1 0x2 ADD DUP1 SLOAD PUSH2 0x6A5 SWAP1 PUSH2 0x101C JUMP JUMPDEST DUP1 PUSH1 0x1F ADD PUSH1 0x20 DUP1 SWAP2 DIV MUL PUSH1 0x20 ADD PUSH1 0x40 MLOAD SWAP1 DUP2 ADD PUSH1 0x40 MSTORE DUP1 SWAP3 SWAP2 SWAP1 DUP2 DUP2 MSTORE PUSH1 0x20 ADD DUP3 DUP1 SLOAD PUSH2 0x6D1 SWAP1 PUSH2 0x101C JUMP JUMPDEST DUP1 ISZERO PUSH2 0x71C JUMPI DUP1 PUSH1 0x1F LT PUSH2 0x6F3 JUMPI PUSH2 0x100 DUP1 DUP4 SLOAD DIV MUL DUP4 MSTORE SWAP2 PUSH1 0x20 ADD SWAP2 PUSH2 0x71C JUMP JUMPDEST DUP3 ADD SWAP2 SWAP1 PUSH0 MSTORE PUSH1 0x20 PUSH0 KECCAK256 SWAP1 JUMPDEST DUP2 SLOAD DUP2 MSTORE SWAP1 PUSH1 0x1 ADD SWAP1 PUSH1 0x20 ADD DUP1 DUP4 GT PUSH2 0x6FF JUMPI DUP3 SWAP1 SUB PUSH1 0x1F AND DUP3 ADD SWAP2 JUMPDEST POP POP POP POP POP SWAP1 DUP1 PUSH1 0x3 ADD DUP1 SLOAD PUSH2 0x731 SWAP1 PUSH2 0x101C JUMP JUMPDEST DUP1 PUSH1 0x1F ADD PUSH1 0x20 DUP1 SWAP2 DIV MUL PUSH1 0x20 ADD PUSH1 0x40 MLOAD SWAP1 DUP2 ADD PUSH1 0x40 MSTORE DUP1 SWAP3 SWAP2 SWAP1 DUP2 DUP2 MSTORE PUSH1 0x20 ADD DUP3 DUP1 SLOAD PUSH2 0x75D SWAP1 PUSH2 0x101C JUMP JUMPDEST DUP1 ISZERO PUSH2 0x7A8 JUMPI DUP1 PUSH1 0x1F LT PUSH2 0x77F JUMPI PUSH2 0x100 DUP1 DUP4 SLOAD DIV MUL DUP4 MSTORE SWAP2 PUSH1 0x20 ADD SWAP2 PUSH2 0x7A8 JUMP JUMPDEST DUP3 ADD SWAP2 SWAP1 PUSH0 MSTORE PUSH1 0x20 PUSH0 KECCAK256 SWAP1 JUMPDEST DUP2 SLOAD DUP2 MSTORE SWAP1 PUSH1 0x1 ADD SWAP1 PUSH1 0x20 ADD DUP1 DUP4 GT PUSH2 0x78B JUMPI DUP3 SWAP1 SUB PUSH1 0x1F AND DUP3 ADD SWAP2 JUMPDEST POP POP POP POP POP SWAP1 DUP1 PUSH1 0x4 ADD PUSH0 SWAP1 SLOAD SWAP1 PUSH2 0x100 EXP SWAP1 DIV PUSH1 0xFF AND SWAP1 POP DUP6 JUMP JUMPDEST PUSH1 0x40 MLOAD DUP1 PUSH1 0xA0 ADD PUSH1 0x40 MSTORE DUP1 PUSH1 0x1 SLOAD DUP2 MSTORE PUSH1 0x20 ADD DUP3 PUSH20 0xFFFFFFFFFFFFFFFFFFFFFFFFFFFFFFFFFFFFFFFF AND DUP2 MSTORE PUSH1 0x20 ADD DUP4 DUP2 MSTORE PUSH1 0x20 ADD PUSH1 0x40 MLOAD DUP1 PUSH1 0x40 ADD PUSH1 0x40 MSTORE DUP1 PUSH1 0x6 DUP2 MSTORE PUSH1 0x20 ADD PUSH32 0x536F757263650000000000000000000000000000000000000000000000000000 DUP2 MSTORE POP DUP2 MSTORE PUSH1 0x20 ADD PUSH0 PUSH1 0x2 DUP2 GT ISZERO PUSH2 0x847 JUMPI PUSH2 0x846 PUSH2 0xB26 JUMP JUMPDEST JUMPDEST DUP2 MSTORE POP PUSH0 DUP1 PUSH1 0x1 SLOAD DUP2 MSTORE PUSH1 0x20 ADD SWAP1 DUP2 MSTORE PUSH1 0x20 ADD PUSH0 KECCAK256 PUSH0 DUP3 ADD MLOAD DUP2 PUSH0 ADD SSTORE PUSH1 0x20 DUP3 ADD MLOAD DUP2 PUSH1 0x1 ADD PUSH0 PUSH2 0x100 EXP DUP2 SLOAD DUP2 PUSH20 0xFFFFFFFFFFFFFFFFFFFFFFFFFFFFFFFFFFFFFFFF MUL NOT AND SWAP1 DUP4 PUSH20 0xFFFFFFFFFFFFFFFFFFFFFFFFFFFFFFFFFFFFFFFF AND MUL OR SWAP1 SSTORE POP PUSH1 0x40 DUP3 ADD MLOAD DUP2 PUSH1 0x2 ADD SWAP1 DUP2 PUSH2 0x8BF SWAP2 SWAP1 PUSH2 0x1305 JUMP JUMPDEST POP PUSH1 0x60 DUP3 ADD MLOAD DUP2 PUSH1 0x3 ADD SWAP1 DUP2 PUSH2 0x8D5 SWAP2 SWAP1 PUSH2 0x1305 JUMP JUMPDEST POP PUSH1 0x80 DUP3 ADD MLOAD DUP2 PUSH1 0x4 ADD PUSH0 PUSH2 0x100 EXP DUP2 SLOAD DUP2 PUSH1 0xFF MUL NOT AND SWAP1 DUP4 PUSH1 0x2 DUP2 GT ISZERO PUSH2 0x900 JUMPI PUSH2 0x8FF PUSH2 0xB26 JUMP JUMPDEST JUMPDEST MUL OR SWAP1 SSTORE POP SWAP1 POP POP PUSH1 0x1 PUSH0 DUP2 SLOAD DUP1 SWAP3 SWAP2 SWAP1 PUSH2 0x91A SWAP1 PUSH2 0x1434 JUMP JUMPDEST SWAP2 SWAP1 POP SSTORE POP POP POP JUMP JUMPDEST PUSH1 0x40 MLOAD DUP1 PUSH1 0xA0 ADD PUSH1 0x40 MSTORE DUP1 PUSH0 DUP2 MSTORE PUSH1 0x20 ADD PUSH0 PUSH20 0xFFFFFFFFFFFFFFFFFFFFFFFFFFFFFFFFFFFFFFFF AND DUP2 MSTORE PUSH1 0x20 ADD PUSH1 0x60 DUP2 MSTORE PUSH1 0x20 ADD PUSH1 0x60 DUP2 MSTORE PUSH1 0x20 ADD PUSH0 PUSH1 0x2 DUP2 GT ISZERO PUSH2 0x971 JUMPI PUSH2 0x970 PUSH2 0xB26 JUMP JUMPDEST JUMPDEST DUP2 MSTORE POP SWAP1 JUMP JUMPDEST PUSH0 PUSH1 0x40 MLOAD SWAP1 POP SWAP1 JUMP JUMPDEST PUSH0 DUP1 REVERT JUMPDEST PUSH0 DUP1 REVERT JUMPDEST PUSH0 DUP2 SWAP1 POP SWAP2 SWAP1 POP JUMP JUMPDEST PUSH2 0x99A DUP2 PUSH2 0x988 JUMP JUMPDEST DUP2 EQ PUSH2 0x9A4 JUMPI PUSH0 DUP1 REVERT JUMPDEST POP JUMP JUMPDEST PUSH0 DUP2 CALLDATALOAD SWAP1 POP PUSH2 0x9B5 DUP2 PUSH2 0x991 JUMP JUMPDEST SWAP3 SWAP2 POP POP JUMP JUMPDEST PUSH0 PUSH20 0xFFFFFFFFFFFFFFFFFFFFFFFFFFFFFFFFFFFFFFFF DUP3 AND SWAP1 POP SWAP2 SWAP1 POP JUMP JUMPDEST PUSH0 PUSH2 0x9E4 DUP3 PUSH2 0x9BB JUMP JUMPDEST SWAP1 POP SWAP2 SWAP1 POP JUMP JUMPDEST PUSH2 0x9F4 DUP2 PUSH2 0x9DA JUMP JUMPDEST DUP2 EQ PUSH2 0x9FE JUMPI PUSH0 DUP1 REVERT JUMPDEST POP JUMP JUMPDEST PUSH0 DUP2 CALLDATALOAD SWAP1 POP PUSH2 0xA0F DUP2 PUSH2 0x9EB JUMP JUMPDEST SWAP3 SWAP2 POP POP JUMP JUMPDEST PUSH0 DUP1 PUSH1 0x40 DUP4 DUP6 SUB SLT ISZERO PUSH2 0xA2B JUMPI PUSH2 0xA2A PUSH2 0x980 JUMP JUMPDEST JUMPDEST PUSH0 PUSH2 0xA38 DUP6 DUP3 DUP7 ADD PUSH2 0x9A7 JUMP JUMPDEST SWAP3 POP POP PUSH1 0x20 PUSH2 0xA49 DUP6 DUP3 DUP7 ADD PUSH2 0xA01 JUMP JUMPDEST SWAP2 POP POP SWAP3 POP SWAP3 SWAP1 POP JUMP JUMPDEST PUSH0 PUSH1 0x20 DUP3 DUP5 SUB SLT ISZERO PUSH2 0xA68 JUMPI PUSH2 0xA67 PUSH2 0x980 JUMP JUMPDEST JUMPDEST PUSH0 PUSH2 0xA75 DUP5 DUP3 DUP6 ADD PUSH2 0x9A7 JUMP JUMPDEST SWAP2 POP POP SWAP3 SWAP2 POP POP JUMP JUMPDEST PUSH2 0xA87 DUP2 PUSH2 0x988 JUMP JUMPDEST DUP3 MSTORE POP POP JUMP JUMPDEST PUSH2 0xA96 DUP2 PUSH2 0x9DA JUMP JUMPDEST DUP3 MSTORE POP POP JUMP JUMPDEST PUSH0 DUP2 MLOAD SWAP1 POP SWAP2 SWAP1 POP JUMP JUMPDEST PUSH0 DUP3 DUP3 MSTORE PUSH1 0x20 DUP3 ADD SWAP1 POP SWAP3 SWAP2 POP POP JUMP JUMPDEST PUSH0 JUMPDEST DUP4 DUP2 LT ISZERO PUSH2 0xAD3 JUMPI DUP1 DUP3 ADD MLOAD DUP2 DUP5 ADD MSTORE PUSH1 0x20 DUP2 ADD SWAP1 POP PUSH2 0xAB8 JUMP JUMPDEST PUSH0 DUP5 DUP5 ADD MSTORE POP POP POP POP JUMP JUMPDEST PUSH0 PUSH1 0x1F NOT PUSH1 0x1F DUP4 ADD AND SWAP1 POP SWAP2 SWAP1 POP JUMP JUMPDEST PUSH0 PUSH2 0xAF8 DUP3 PUSH2 0xA9C JUMP JUMPDEST PUSH2 0xB02 DUP2 DUP6 PUSH2 0xAA6 JUMP JUMPDEST SWAP4 POP PUSH2 0xB12 DUP2 DUP6 PUSH1 0x20 DUP7 ADD PUSH2 0xAB6 JUMP JUMPDEST PUSH2 0xB1B DUP2 PUSH2 0xADE JUMP JUMPDEST DUP5 ADD SWAP2 POP POP SWAP3 SWAP2 POP POP JUMP JUMPDEST PUSH32 0x4E487B7100000000000000000000000000000000000000000000000000000000 PUSH0 MSTORE PUSH1 0x21 PUSH1 0x4 MSTORE PUSH1 0x24 PUSH0 REVERT JUMPDEST PUSH1 0x3 DUP2 LT PUSH2 0xB64 JUMPI PUSH2 0xB63 PUSH2 0xB26 JUMP JUMPDEST JUMPDEST POP JUMP JUMPDEST PUSH0 DUP2 SWAP1 POP PUSH2 0xB74 DUP3 PUSH2 0xB53 JUMP JUMPDEST SWAP2 SWAP1 POP JUMP JUMPDEST PUSH0 PUSH2 0xB83 DUP3 PUSH2 0xB67 JUMP JUMPDEST SWAP1 POP SWAP2 SWAP1 POP JUMP JUMPDEST PUSH2 0xB93 DUP2 PUSH2 0xB79 JUMP JUMPDEST DUP3 MSTORE POP POP JUMP JUMPDEST PUSH0 PUSH1 0xA0 DUP4 ADD PUSH0 DUP4 ADD MLOAD PUSH2 0xBAE PUSH0 DUP7 ADD DUP3 PUSH2 0xA7E JUMP JUMPDEST POP PUSH1 0x20 DUP4 ADD MLOAD PUSH2 0xBC1 PUSH1 0x20 DUP7 ADD DUP3 PUSH2 0xA8D JUMP JUMPDEST POP PUSH1 0x40 DUP4 ADD MLOAD DUP5 DUP3 SUB PUSH1 0x40 DUP7 ADD MSTORE PUSH2 0xBD9 DUP3 DUP3 PUSH2 0xAEE JUMP JUMPDEST SWAP2 POP POP PUSH1 0x60 DUP4 ADD MLOAD DUP5 DUP3 SUB PUSH1 0x60 DUP7 ADD MSTORE PUSH2 0xBF3 DUP3 DUP3 PUSH2 0xAEE JUMP JUMPDEST SWAP2 POP POP PUSH1 0x80 DUP4 ADD MLOAD PUSH2 0xC08 PUSH1 0x80 DUP7 ADD DUP3 PUSH2 0xB8A JUMP JUMPDEST POP DUP1 SWAP2 POP POP SWAP3 SWAP2 POP POP JUMP JUMPDEST PUSH0 PUSH1 0x20 DUP3 ADD SWAP1 POP DUP2 DUP2 SUB PUSH0 DUP4 ADD MSTORE PUSH2 0xC2B DUP2 DUP5 PUSH2 0xB99 JUMP JUMPDEST SWAP1 POP SWAP3 SWAP2 POP POP JUMP JUMPDEST PUSH1 0x3 DUP2 LT PUSH2 0xC3F JUMPI PUSH0 DUP1 REVERT JUMPDEST POP JUMP JUMPDEST PUSH0 DUP2 CALLDATALOAD SWAP1 POP PUSH2 0xC50 DUP2 PUSH2 0xC33 JUMP JUMPDEST SWAP3 SWAP2 POP POP JUMP JUMPDEST PUSH0 DUP1 PUSH1 0x40 DUP4 DUP6 SUB SLT ISZERO PUSH2 0xC6C JUMPI PUSH2 0xC6B PUSH2 0x980 JUMP JUMPDEST JUMPDEST PUSH0 PUSH2 0xC79 DUP6 DUP3 DUP7 ADD PUSH2 0x9A7 JUMP JUMPDEST SWAP3 POP POP PUSH1 0x20 PUSH2 0xC8A DUP6 DUP3 DUP7 ADD PUSH2 0xC42 JUMP JUMPDEST SWAP2 POP POP SWAP3 POP SWAP3 SWAP1 POP JUMP JUMPDEST PUSH0 DUP1 REVERT JUMPDEST PUSH0 DUP1 REVERT JUMPDEST PUSH32 0x4E487B7100000000000000000000000000000000000000000000000000000000 PUSH0 MSTORE PUSH1 0x41 PUSH1 0x4 MSTORE PUSH1 0x24 PUSH0 REVERT JUMPDEST PUSH2 0xCD2 DUP3 PUSH2 0xADE JUMP JUMPDEST DUP2 ADD DUP2 DUP2 LT PUSH8 0xFFFFFFFFFFFFFFFF DUP3 GT OR ISZERO PUSH2 0xCF1 JUMPI PUSH2 0xCF0 PUSH2 0xC9C JUMP JUMPDEST JUMPDEST DUP1 PUSH1 0x40 MSTORE POP POP POP JUMP JUMPDEST PUSH0 PUSH2 0xD03 PUSH2 0x977 JUMP JUMPDEST SWAP1 POP PUSH2 0xD0F DUP3 DUP3 PUSH2 0xCC9 JUMP JUMPDEST SWAP2 SWAP1 POP JUMP JUMPDEST PUSH0 PUSH8 0xFFFFFFFFFFFFFFFF DUP3 GT ISZERO PUSH2 0xD2E JUMPI PUSH2 0xD2D PUSH2 0xC9C JUMP JUMPDEST JUMPDEST PUSH2 0xD37 DUP3 PUSH2 0xADE JUMP JUMPDEST SWAP1 POP PUSH1 0x20 DUP2 ADD SWAP1 POP SWAP2 SWAP1 POP JUMP JUMPDEST DUP3 DUP2 DUP4 CALLDATACOPY PUSH0 DUP4 DUP4 ADD MSTORE POP POP POP JUMP JUMPDEST PUSH0 PUSH2 0xD64 PUSH2 0xD5F DUP5 PUSH2 0xD14 JUMP JUMPDEST PUSH2 0xCFA JUMP JUMPDEST SWAP1 POP DUP3 DUP2 MSTORE PUSH1 0x20 DUP2 ADD DUP5 DUP5 DUP5 ADD GT ISZERO PUSH2 0xD80 JUMPI PUSH2 0xD7F PUSH2 0xC98 JUMP JUMPDEST JUMPDEST PUSH2 0xD8B DUP5 DUP3 DUP6 PUSH2 0xD44 JUMP JUMPDEST POP SWAP4 SWAP3 POP POP POP JUMP JUMPDEST PUSH0 DUP3 PUSH1 0x1F DUP4 ADD SLT PUSH2 0xDA7 JUMPI PUSH2 0xDA6 PUSH2 0xC94 JUMP JUMPDEST JUMPDEST DUP2 CALLDATALOAD PUSH2 0xDB7 DUP5 DUP3 PUSH1 0x20 DUP7 ADD PUSH2 0xD52 JUMP JUMPDEST SWAP2 POP POP SWAP3 SWAP2 POP POP JUMP JUMPDEST PUSH0 DUP1 PUSH1 0x40 DUP4 DUP6 SUB SLT ISZERO PUSH2 0xDD6 JUMPI PUSH2 0xDD5 PUSH2 0x980 JUMP JUMPDEST JUMPDEST PUSH0 PUSH2 0xDE3 DUP6 DUP3 DUP7 ADD PUSH2 0x9A7 JUMP JUMPDEST SWAP3 POP POP PUSH1 0x20 DUP4 ADD CALLDATALOAD PUSH8 0xFFFFFFFFFFFFFFFF DUP2 GT ISZERO PUSH2 0xE04 JUMPI PUSH2 0xE03 PUSH2 0x984 JUMP JUMPDEST JUMPDEST PUSH2 0xE10 DUP6 DUP3 DUP7 ADD PUSH2 0xD93 JUMP JUMPDEST SWAP2 POP POP SWAP3 POP SWAP3 SWAP1 POP JUMP JUMPDEST PUSH2 0xE23 DUP2 PUSH2 0x988 JUMP JUMPDEST DUP3 MSTORE POP POP JUMP JUMPDEST PUSH0 PUSH1 0x20 DUP3 ADD SWAP1 POP PUSH2 0xE3C PUSH0 DUP4 ADD DUP5 PUSH2 0xE1A JUMP JUMPDEST SWAP3 SWAP2 POP POP JUMP JUMPDEST PUSH2 0xE4B DUP2 PUSH2 0x9DA JUMP JUMPDEST DUP3 MSTORE POP POP JUMP JUMPDEST PUSH0 DUP3 DUP3 MSTORE PUSH1 0x20 DUP3 ADD SWAP1 POP SWAP3 SWAP2 POP POP JUMP JUMPDEST PUSH0 PUSH2 0xE6B DUP3 PUSH2 0xA9C JUMP JUMPDEST PUSH2 0xE75 DUP2 DUP6 PUSH2 0xE51 JUMP JUMPDEST SWAP4 POP PUSH2 0xE85 DUP2 DUP6 PUSH1 0x20 DUP7 ADD PUSH2 0xAB6 JUMP JUMPDEST PUSH2 0xE8E DUP2 PUSH2 0xADE JUMP JUMPDEST DUP5 ADD SWAP2 POP POP SWAP3 SWAP2 POP POP JUMP JUMPDEST PUSH2 0xEA2 DUP2 PUSH2 0xB79 JUMP JUMPDEST DUP3 MSTORE POP POP JUMP JUMPDEST PUSH0 PUSH1 0xA0 DUP3 ADD SWAP1 POP PUSH2 0xEBB PUSH0 DUP4 ADD DUP9 PUSH2 0xE1A JUMP JUMPDEST PUSH2 0xEC8 PUSH1 0x20 DUP4 ADD DUP8 PUSH2 0xE42 JUMP JUMPDEST DUP2 DUP2 SUB PUSH1 0x40 DUP4 ADD MSTORE PUSH2 0xEDA DUP2 DUP7 PUSH2 0xE61 JUMP JUMPDEST SWAP1 POP DUP2 DUP2 SUB PUSH1 0x60 DUP4 ADD MSTORE PUSH2 0xEEE DUP2 DUP6 PUSH2 0xE61 JUMP JUMPDEST SWAP1 POP PUSH2 0xEFD PUSH1 0x80 DUP4 ADD DUP5 PUSH2 0xE99 JUMP JUMPDEST SWAP7 SWAP6 POP POP POP POP POP POP JUMP JUMPDEST PUSH0 DUP1 PUSH1 0x40 DUP4 DUP6 SUB SLT ISZERO PUSH2 0xF1D JUMPI PUSH2 0xF1C PUSH2 0x980 JUMP JUMPDEST JUMPDEST PUSH0 DUP4 ADD CALLDATALOAD PUSH8 0xFFFFFFFFFFFFFFFF DUP2 GT ISZERO PUSH2 0xF3A JUMPI PUSH2 0xF39 PUSH2 0x984 JUMP JUMPDEST JUMPDEST PUSH2 0xF46 DUP6 DUP3 DUP7 ADD PUSH2 0xD93 JUMP JUMPDEST SWAP3 POP POP PUSH1 0x20 PUSH2 0xF57 DUP6 DUP3 DUP7 ADD PUSH2 0xA01 JUMP JUMPDEST SWAP2 POP POP SWAP3 POP SWAP3 SWAP1 POP JUMP JUMPDEST PUSH32 0x4F6E6C7920746865206F776E65722063616E207472616E73666572206F776E65 PUSH0 DUP3 ADD MSTORE PUSH32 0x7273686970000000000000000000000000000000000000000000000000000000 PUSH1 0x20 DUP3 ADD MSTORE POP JUMP JUMPDEST PUSH0 PUSH2 0xFBB PUSH1 0x25 DUP4 PUSH2 0xE51 JUMP JUMPDEST SWAP2 POP PUSH2 0xFC6 DUP3 PUSH2 0xF61 JUMP JUMPDEST PUSH1 0x40 DUP3 ADD SWAP1 POP SWAP2 SWAP1 POP JUMP JUMPDEST PUSH0 PUSH1 0x20 DUP3 ADD SWAP1 POP DUP2 DUP2 SUB PUSH0 DUP4 ADD MSTORE PUSH2 0xFE8 DUP2 PUSH2 0xFAF JUMP JUMPDEST SWAP1 POP SWAP2 SWAP1 POP JUMP JUMPDEST PUSH32 0x4E487B7100000000000000000000000000000000000000000000000000000000 PUSH0 MSTORE PUSH1 0x22 PUSH1 0x4 MSTORE PUSH1 0x24 PUSH0 REVERT JUMPDEST PUSH0 PUSH1 0x2 DUP3 DIV SWAP1 POP PUSH1 0x1 DUP3 AND DUP1 PUSH2 0x1033 JUMPI PUSH1 0x7F DUP3 AND SWAP2 POP JUMPDEST PUSH1 0x20 DUP3 LT DUP2 SUB PUSH2 0x1046 JUMPI PUSH2 0x1045 PUSH2 0xFEF JUMP JUMPDEST JUMPDEST POP SWAP2 SWAP1 POP JUMP JUMPDEST PUSH32 0x4F6E6C7920746865206F776E6572206F722064656C6976657279206167656E74 PUSH0 DUP3 ADD MSTORE PUSH32 0x2063616E206368616E67652073746174757320746F2044454C49564552454400 PUSH1 0x20 DUP3 ADD MSTORE POP JUMP JUMPDEST PUSH0 PUSH2 0x10A6 PUSH1 0x3F DUP4 PUSH2 0xE51 JUMP JUMPDEST SWAP2 POP PUSH2 0x10B1 DUP3 PUSH2 0x104C JUMP JUMPDEST PUSH1 0x40 DUP3 ADD SWAP1 POP SWAP2 SWAP1 POP JUMP JUMPDEST PUSH0 PUSH1 0x20 DUP3 ADD SWAP1 POP DUP2 DUP2 SUB PUSH0 DUP4 ADD MSTORE PUSH2 0x10D3 DUP2 PUSH2 0x109A JUMP JUMPDEST SWAP1 POP SWAP2 SWAP1 POP JUMP JUMPDEST PUSH32 0x4F6E6C7920746865206F776E65722063616E20757064617465206C6F63617469 PUSH0 DUP3 ADD MSTORE PUSH32 0x6F6E000000000000000000000000000000000000000000000000000000000000 PUSH1 0x20 DUP3 ADD MSTORE POP JUMP JUMPDEST PUSH0 PUSH2 0x1134 PUSH1 0x22 DUP4 PUSH2 0xE51 JUMP JUMPDEST SWAP2 POP PUSH2 0x113F DUP3 PUSH2 0x10DA JUMP JUMPDEST PUSH1 0x40 DUP3 ADD SWAP1 POP SWAP2 SWAP1 POP JUMP JUMPDEST PUSH0 PUSH1 0x20 DUP3 ADD SWAP1 POP DUP2 DUP2 SUB PUSH0 DUP4 ADD MSTORE PUSH2 0x1161 DUP2 PUSH2 0x1128 JUMP JUMPDEST SWAP1 POP SWAP2 SWAP1 POP JUMP JUMPDEST PUSH0 DUP2 SWAP1 POP DUP2 PUSH0 MSTORE PUSH1 0x20 PUSH0 KECCAK256 SWAP1 POP SWAP2 SWAP1 POP JUMP JUMPDEST PUSH0 PUSH1 0x20 PUSH1 0x1F DUP4 ADD DIV SWAP1 POP SWAP2 SWAP1 POP JUMP JUMPDEST PUSH0 DUP3 DUP3 SHL SWAP1 POP SWAP3 SWAP2 POP POP JUMP JUMPDEST PUSH0 PUSH1 0x8 DUP4 MUL PUSH2 0x11C4 PUSH32 0xFFFFFFFFFFFFFFFFFFFFFFFFFFFFFFFFFFFFFFFFFFFFFFFFFFFFFFFFFFFFFFFF DUP3 PUSH2 0x1189 JUMP JUMPDEST PUSH2 0x11CE DUP7 DUP4 PUSH2 0x1189 JUMP JUMPDEST SWAP6 POP DUP1 NOT DUP5 AND SWAP4 POP DUP1 DUP7 AND DUP5 OR SWAP3 POP POP POP SWAP4 SWAP3 POP POP POP JUMP JUMPDEST PUSH0 DUP2 SWAP1 POP SWAP2 SWAP1 POP JUMP JUMPDEST PUSH0 PUSH2 0x1209 PUSH2 0x1204 PUSH2 0x11FF DUP5 PUSH2 0x988 JUMP JUMPDEST PUSH2 0x11E6 JUMP JUMPDEST PUSH2 0x988 JUMP JUMPDEST SWAP1 POP SWAP2 SWAP1 POP JUMP JUMPDEST PUSH0 DUP2 SWAP1 POP SWAP2 SWAP1 POP JUMP JUMPDEST PUSH2 0x1222 DUP4 PUSH2 0x11EF JUMP JUMPDEST PUSH2 0x1236 PUSH2 0x122E DUP3 PUSH2 0x1210 JUMP JUMPDEST DUP5 DUP5 SLOAD PUSH2 0x1195 JUMP JUMPDEST DUP3 SSTORE POP POP POP POP JUMP JUMPDEST PUSH0 SWAP1 JUMP JUMPDEST PUSH2 0x124A PUSH2 0x123E JUMP JUMPDEST PUSH2 0x1255 DUP2 DUP5 DUP5 PUSH2 0x1219 JUMP JUMPDEST POP POP POP JUMP JUMPDEST JUMPDEST DUP2 DUP2 LT ISZERO PUSH2 0x1278 JUMPI PUSH2 0x126D PUSH0 DUP3 PUSH2 0x1242 JUMP JUMPDEST PUSH1 0x1 DUP2 ADD SWAP1 POP PUSH2 0x125B JUMP JUMPDEST POP POP JUMP JUMPDEST PUSH1 0x1F DUP3 GT ISZERO PUSH2 0x12BD JUMPI PUSH2 0x128E DUP2 PUSH2 0x1168 JUMP JUMPDEST PUSH2 0x1297 DUP5 PUSH2 0x117A JUMP JUMPDEST DUP2 ADD PUSH1 0x20 DUP6 LT ISZERO PUSH2 0x12A6 JUMPI DUP2 SWAP1 POP JUMPDEST PUSH2 0x12BA PUSH2 0x12B2 DUP6 PUSH2 0x117A JUMP JUMPDEST DUP4 ADD DUP3 PUSH2 0x125A JUMP JUMPDEST POP POP JUMPDEST POP POP POP JUMP JUMPDEST PUSH0 DUP3 DUP3 SHR SWAP1 POP SWAP3 SWAP2 POP POP JUMP JUMPDEST PUSH0 PUSH2 0x12DD PUSH0 NOT DUP5 PUSH1 0x8 MUL PUSH2 0x12C2 JUMP JUMPDEST NOT DUP1 DUP4 AND SWAP2 POP POP SWAP3 SWAP2 POP POP JUMP JUMPDEST PUSH0 PUSH2 0x12F5 DUP4 DUP4 PUSH2 0x12CE JUMP JUMPDEST SWAP2 POP DUP3 PUSH1 0x2 MUL DUP3 OR SWAP1 POP SWAP3 SWAP2 POP POP JUMP JUMPDEST PUSH2 0x130E DUP3 PUSH2 0xA9C JUMP JUMPDEST PUSH8 0xFFFFFFFFFFFFFFFF DUP2 GT ISZERO PUSH2 0x1327 JUMPI PUSH2 0x1326 PUSH2 0xC9C JUMP JUMPDEST JUMPDEST PUSH2 0x1331 DUP3 SLOAD PUSH2 0x101C JUMP JUMPDEST PUSH2 0x133C DUP3 DUP3 DUP6 PUSH2 0x127C JUMP JUMPDEST PUSH0 PUSH1 0x20 SWAP1 POP PUSH1 0x1F DUP4 GT PUSH1 0x1 DUP2 EQ PUSH2 0x136D JUMPI PUSH0 DUP5 ISZERO PUSH2 0x135B JUMPI DUP3 DUP8 ADD MLOAD SWAP1 POP JUMPDEST PUSH2 0x1365 DUP6 DUP3 PUSH2 0x12EA JUMP JUMPDEST DUP7 SSTORE POP PUSH2 0x13CC JUMP JUMPDEST PUSH1 0x1F NOT DUP5 AND PUSH2 0x137B DUP7 PUSH2 0x1168 JUMP JUMPDEST PUSH0 JUMPDEST DUP3 DUP2 LT ISZERO PUSH2 0x13A2 JUMPI DUP5 DUP10 ADD MLOAD DUP3 SSTORE PUSH1 0x1 DUP3 ADD SWAP2 POP PUSH1 0x20 DUP6 ADD SWAP5 POP PUSH1 0x20 DUP2 ADD SWAP1 POP PUSH2 0x137D JUMP JUMPDEST DUP7 DUP4 LT ISZERO PUSH2 0x13BF JUMPI DUP5 DUP10 ADD MLOAD PUSH2 0x13BB PUSH1 0x1F DUP10 AND DUP3 PUSH2 0x12CE JUMP JUMPDEST DUP4 SSTORE POP JUMPDEST PUSH1 0x1 PUSH1 0x2 DUP9 MUL ADD DUP9 SSTORE POP POP POP JUMPDEST POP POP POP POP POP POP JUMP JUMPDEST PUSH32 0x4E487B7100000000000000000000000000000000000000000000000000000000 PUSH0 MSTORE PUSH1 0x11 PUSH1 0x4 MSTORE PUSH1 0x24 PUSH0 REVERT JUMPDEST PUSH0 PUSH2 0x140B DUP3 PUSH2 0x988 JUMP JUMPDEST SWAP2 POP PUSH2 0x1416 DUP4 PUSH2 0x988 JUMP JUMPDEST SWAP3 POP DUP3 DUP3 SUB SWAP1 POP DUP2 DUP2 GT ISZERO PUSH2 0x142E JUMPI PUSH2 0x142D PUSH2 0x13D4 JUMP JUMPDEST JUMPDEST SWAP3 SWAP2 POP POP JUMP JUMPDEST PUSH0 PUSH2 0x143E DUP3 PUSH2 0x988 JUMP JUMPDEST SWAP2 POP PUSH32 0xFFFFFFFFFFFFFFFFFFFFFFFFFFFFFFFFFFFFFFFFFFFFFFFFFFFFFFFFFFFFFFFF DUP3 SUB PUSH2 0x1470 JUMPI PUSH2 0x146F PUSH2 0x13D4 JUMP JUMPDEST JUMPDEST PUSH1 0x1 DUP3 ADD SWAP1 POP SWAP2 SWAP1 POP JUMP INVALID LOG2 PUSH5 0x6970667358 0x22 SLT KECCAK256 LOG3 LOG3 0xC5 TIMESTAMP 0xBD DUP7 0xD1 0xA5 SELFDESTRUCT 0x4B STOP 0xBD DUP12 AND 0xD6 SWAP13 0xD5 EXP 0xC5 POP 0xA9 GASPRICE PUSH20 0xE410165B21A29BADCC64736F6C63430008160033 "
				},
				"gasEstimates": {
					"creation": {
						"codeDepositCost": "1059400",
						"executionCost": "23212",
						"totalCost": "1082612"
					},
					"external": {
						"createItem(string,address)": "infinite",
						"getItem(uint256)": "infinite",
						"getItemCount()": "infinite",
						"items(uint256)": "infinite",
						"nextItemId()": "2425",
						"transferOwnership(uint256,address)": "27220",
						"updateLocation(uint256,string)": "infinite",
						"updateStatus(uint256,uint8)": "27274"
					}
				},
				"methodIdentifiers": {
					"createItem(string,address)": "fb54453b",
					"getItem(uint256)": "3129e773",
					"getItemCount()": "7749cf23",
					"items(uint256)": "bfb231d2",
					"nextItemId()": "6a868974",
					"transferOwnership(uint256,address)": "29507f73",
					"updateLocation(uint256,string)": "4ec0c9e9",
					"updateStatus(uint256,uint8)": "3a1b3d31"
				}
			},
			"storageLayout": {
				"storage": [
					{
						"astId": 6,
						"contract": "contracts/SupplyChain.sol:SupplyChainManager",
						"label": "items",
						"offset": 0,
						"slot": "0",
						"type": "t_mapping(t_uint256,t_struct(Item)24_storage)"
					},
					{
						"astId": 8,
						"contract": "contracts/SupplyChain.sol:SupplyChainManager",
						"label": "nextItemId",
						"offset": 0,
						"slot": "1",
						"type": "t_uint256"
					}
				],
				"types": {
					"t_address": {
						"encoding": "inplace",
						"label": "address",
						"numberOfBytes": "20"
					},
					"t_enum(Status)12": {
						"encoding": "inplace",
						"label": "enum SupplyChainManager.Status",
						"numberOfBytes": "1"
					},
					"t_mapping(t_uint256,t_struct(Item)24_storage)": {
						"encoding": "mapping",
						"key": "t_uint256",
						"label": "mapping(uint256 => struct SupplyChainManager.Item)",
						"numberOfBytes": "32",
						"value": "t_struct(Item)24_storage"
					},
					"t_string_storage": {
						"encoding": "bytes",
						"label": "string",
						"numberOfBytes": "32"
					},
					"t_struct(Item)24_storage": {
						"encoding": "inplace",
						"label": "struct SupplyChainManager.Item",
						"members": [
							{
								"astId": 14,
								"contract": "contracts/SupplyChain.sol:SupplyChainManager",
								"label": "id",
								"offset": 0,
								"slot": "0",
								"type": "t_uint256"
							},
							{
								"astId": 16,
								"contract": "contracts/SupplyChain.sol:SupplyChainManager",
								"label": "owner",
								"offset": 0,
								"slot": "1",
								"type": "t_address"
							},
							{
								"astId": 18,
								"contract": "contracts/SupplyChain.sol:SupplyChainManager",
								"label": "description",
								"offset": 0,
								"slot": "2",
								"type": "t_string_storage"
							},
							{
								"astId": 20,
								"contract": "contracts/SupplyChain.sol:SupplyChainManager",
								"label": "location",
								"offset": 0,
								"slot": "3",
								"type": "t_string_storage"
							},
							{
								"astId": 23,
								"contract": "contracts/SupplyChain.sol:SupplyChainManager",
								"label": "status",
								"offset": 0,
								"slot": "4",
								"type": "t_enum(Status)12"
							}
						],
						"numberOfBytes": "160"
					},
					"t_uint256": {
						"encoding": "inplace",
						"label": "uint256",
						"numberOfBytes": "32"
					}
				}
			},
			"userdoc": {
				"kind": "user",
				"methods": {},
				"version": 1
			}
		}
	}
}